:020000040800F2
:10000000081C00207D100008ED100008ED1000080D
:10001000ED100008ED100008ED10000800000000D1
:10002000000000000000000000000000D53A0008B9
:10003000ED100008000000006D3C0008C53C000801
:10004000ED100008ED100008ED100008ED1000089C
:10005000ED100008ED100008ED100008ED1000088C
:10006000ED100008ED100008ED100008ED1000087C
:10007000ED100008ED100008ED100008ED1000086C
:10008000ED100008ED100008ED100008ED1000085C
:10009000ED100008ED100008ED100008ED1000084C
:1000A000ED100008ED100008ED100008ED1000083C
:1000B000ED100008ED100008ED100008ED1000082C
:1000C000ED100008ED100008ED100008ED1000081C
:1000D000ED100008ED100008ED100008ED1000080C
:1000E000ED100008ED100008ED100008ED100008FC
:1000F000ED100008ED100008ED100008ED100008EC
:10010000ED100008ED100008ED100008ED100008DB
:10011000ED100008ED100008ED100008ED100008CB
:10012000ED100008ED100008ED100008ED100008BB
:10013000ED100008ED100008ED100008ED100008AB
:10014000ED100008ED100008ED100008ED1000089B
:10015000ED100008ED100008ED100008ED1000088B
:10016000ED100008ED100008ED100008ED1000087B
:10017000ED100008ED100008ED100008ED1000086B
:10018000ED100008ED10000810B5054C237833B9C8
:10019000044B13B10448AFF300800123237010BD5A
:1001A000B8080020000000002C35010808B5064BF7
:1001B0001BB106480649AFF300800648036813B137
:1001C000054B03B1984708BD000000002C3501081D
:1001D000BC080020B408002000000000154B002BD4
:1001E00008BF134B9D46A3F5803A00218B460F466E
:1001F0001348144A121A05F055FC0F4B002B00D07F
:1002000098470E4B002B00D0984700200021040097
:100210000D000D48002802D00C4807F047F805F003
:100220009FF82000290001F0F5F905F089F800BFDA
:100230000000080000000220000000000000000094
:10024000B808002004140020AD72000841820008A4
:1002500080B483B000AF786039603B681A687B680F
:100260001A607B6818460C37BD465DF8047B704702
:1002700080B483B000AF78607B6818460C37BD4609
:100280005DF8047B704700BF80B582B000AF786036
:100290007B681B68184600214FF0FF32002303F0F3
:1002A0005DF90837BD4680BD80B582B000AF78608B
:1002B0007B681B68184600210022002303F024F805
:1002C0000346002B0CBF00230123DBB2184608377E
:1002D000BD4680BD80B582B000AF786039603868B7
:1002E00000F008F802467B681A607B6818460837F9
:1002F000BD4680BD80B483B000AF78607B681B686A
:1003000018460C37BD465DF8047B704780B582B057
:1003100000AF78607B681B68184603F0FDF97B68C6
:1003200018460837BD4680BD80B582B000AF786002
:100330007B68094A1A607B681B69184601F000FF58
:100340000023002B02D0786801F03CFE7B68184641
:100350000837BD4680BD00BF1019010880B582B0C6
:1003600000AF78607868FFF7DFFF786801F02AFE59
:100370007B6818460837BD4680BD00BF80B582B097
:1003800000AF78607B681846FFF7C0FF7B681846AF
:100390000837BD4680BD00BF90B585B000AF78601E
:1003A0007B685B68083307F1080210461946FFF7BF
:1003B0004FFF07F108031846FFF766FF0023FB73A2
:1003C0000BE07B685A68FB7B1344FA7B79680A442C
:1003D00012781A70FB7B0133FB73FB7B9CB27B684A
:1003E0001B681B687868984703469C422CBF002313
:1003F0000123DBB2002BE4D107F108031846FFF715
:1004000053FF7B685B6803F1080207F1080310469D
:100410001946FFF75FFF07F108031846FFF728FFAB
:1004200006E007F108031846FFF722FF09F064FE13
:100430001437BD4690BD00BF80B584B000AF786072
:100440007B681B681B68786898470346BB817B689C
:100450005B6808331846FFF717FF0023FB730BE0B8
:10046000FB7B7A6813447A685168FA7B0A441278F5
:100470001A70FB7B0133FB73FB7B9BB2BA899A42F8
:10048000EED87B685B6808331846FFF70DFF10371E
:10049000BD4680BD80B582B000AF78607B68064AFB
:1004A0001A637B6824331846FFF7C6FF4FF4967033
:1004B00001F09CFEF2E700BF0000204180B582B051
:1004C00000AF78607B680B4A1A607B68203318465F
:1004D000FFF754FF7B681846FFF726FF0023002B29
:1004E00002D0786801F06EFD7B6818460837BD467B
:1004F00080BD00BFF818010880B582B000AF7860F9
:100500007868FFF7DBFF786801F05CFD7B681846D0
:100510000837BD4680BD00BF80B582B000AF7860AF
:100520007B68064A1A607B6808331846FFF7A0FE0E
:100530007B6818460837BD4680BD00BFE01801083B
:1005400080B582B000AF78607B68054A1A607B682E
:100550001846FFF7E1FF7B6818460837BD4680BDA7
:10056000C818010880B582B000AF78607B68054A82
:100570001A607B681846FFF7E3FF7B681846083768
:10058000BD4680BDB018010880B582B000AF78606C
:100590007B680B4A1A607B6824331846FFF7E2FF3A
:1005A0007B681846FFF78AFF0023002B02D078688B
:1005B00001F008FD7B6818460837BD4680BD00BFC6
:1005C0008018010880B582B000AF78607868FFF7C6
:1005D000DBFF786801F0F6FC7B6818460837BD46FB
:1005E00080BD00BF80B483B000AF7860242318467C
:1005F0000C37BD465DF8047B704700BF80B582B004
:1006000000AF786039607B68094A1A603B685A68B5
:100610007B685A607B6803F108023B680833104628
:100620001946FFF715FE7B6818460837BD4680BDA2
:10063000E018010880B582B000AF786039607A6850
:100640003B6810461946FFF7D9FF7B68034A1A60DA
:100650007B6818460837BD4680BD00BFC818010832
:1006600080B582B000AF786039607A683B68104628
:100670001946FFF7DFFF7B680F4A1A603B68DA68AC
:100680007B68DA603B681A697B681A613B685A6963
:100690007B685A613B689A697B689A613B68DA6952
:1006A0007B68DA613B681A6A7B681A627B68184665
:1006B0000837BD4680BD00BFB018010880B584B0C2
:1006C00000AFF860B9607A60BB685A687B685A60AE
:1006D000F8687968FFF7C4FFF8681037BD4680BD39
:1006E00080B582B000AF7860012002F0C5FD0246FF
:1006F0007B681A607B681B68002B00D1FEE77B6873
:1007000018460837BD4680BD80B582B000AF78601E
:1007100039607B681B68184639680122002302F0A3
:100720001DFF0346002B0CBF00230123DBB218463C
:100730000837BD4680BD00BF80B485B000AFF8600B
:10074000B9607A6018461437BD465DF8047B70477F
:1007500080B483B000AF78607B6818460C37BD4624
:100760005DF8047B704700BF80B582B000AF786051
:100770007B6854331846FFF77BFD7B6818460837C3
:10078000BD4680BD98B500AF134B1B6803F0010355
:10079000002B16D1104809F0BBF80346002B0CBF04
:1007A00000230123DBB2002B0BD000240B4800F008
:1007B00053F8094809F0CCF808480949094A04F0F7
:1007C000AFFD064B06E0002C02D1034809F0BCF84F
:1007D00009F092FC184698BDD4080020D8080020E3
:1007E000690700080000002080B586B000AFF860FF
:1007F0000B467A60FB720023FB75FB685433184686
:10080000FFF742FDFB6893F85030092B19D8FB68BD
:1008100093F850301A46FB68F97A03F83210FB68F7
:1008200093F85030FA68DB0013447A685A60FB682A
:1008300093F850300133DAB2FB6883F8502001237B
:10084000FB75FB6854331846FFF72EFDFB7D1846F9
:100850001837BD4680BD00BF80B582B000AF78605C
:100860007B6854331846FFF73BFF7B681846083710
:10087000BD4680BD80B582B000AF78600B46FB708E
:10088000FFF780FF01467B68FA78084611461A4652
:10089000FFF7AAFF0837BD4680BD00BF80B582B014
:1008A00000AF786039607B6818463968FFF72CFF25
:1008B000034618460837BD4680BD00BF80B582B0EC
:1008C00000AF78607B68203318460A21FFF7D2FF1B
:1008D0007B68203318460B21FFF7CCFF7B6803F1C0
:1008E00014027B682833104619460C22FFF724FFB8
:1008F0000837BD4680BD00BF80B588B000AF7860C6
:100900007868FFF7DBFF07F10C031846FFF720FFBD
:1009100005E007F10C037868194600F01BF87B68C6
:1009200003F1200207F10C0310461946FFF7B6FF4A
:100930000346002BEDD17B685B6A1B6808331B689C
:100940007A68526A104698474FF4967001F04EFC50
:1009500000BFE4E780B485B000AF78603960002361
:10096000FB603B681B7A0A2B09D00B2B00D00DE0F3
:10097000FB680133FB60FB680133FB6006E0FB684A
:100980000133FB60FB680133FB6000BF00BF14371D
:10099000BD465DF8047B704780B582B000AF7860DB
:1009A0007B68084A1A607B681846FFF787FD0023BA
:1009B000002B02D0786801F005FB7B6818460837E9
:1009C000BD4680BDD019010880B582B000AF786007
:1009D0007868FFF7E1FF786801F0F4FA7B68184661
:1009E0000837BD4680BD00BF80B582B000AF7860DB
:1009F00039607B681B68184639680022002302F0C2
:100A000083FC0346002B0CBF00230123DBB21846F6
:100A10000837BD4680BD00BF80B483B000AF7860AA
:100A2000F970BA707B707B68FA781A727B68BA7852
:100A30005A727B687A789A727B683A7CDA727B6841
:100A40003A7D1A737B683A7E5A737B683A7F9A7351
:100A50007B6818460C37BD465DF8047B704700BFC5
:100A600080B584B000AF786039607B685433184635
:100A7000FFF70AFC0023FB7313E0FA7B7B6813F893
:100A800032203B681B7A9A4208D1FB7B7A68DB00F4
:100A900013445B6818463968FFF7A6FFFB7B0133F8
:100AA000FB737B6893F85030FA7B9A42E5D37B68FE
:100AB00054331846FFF7F8FB1037BD4680BD00BF22
:100AC00084B080B582B000AF786007F1140080E890
:100AD0000E007B687B610023BB61FFF753FE02467B
:100AE00007F1140310461946FFF7BAFF0837BD4651
:100AF000BDE8804004B0704780B58CB004AF78602A
:100B00000B46FB7007F10C02FB78002100910021DD
:100B10000191002102910021039110461946002203
:100B20000023FFF779FF7B68FB6000233B61FFF741
:100B300029FE024607F10C0310461946FFF790FF05
:100B40002037BD4680BD00BF80B483B000AF786061
:100B50000C37BD465DF8047B704700BF90B597B079
:100B600004AF78607868FFF7EFFF07F10C031846D1
:100B7000FFF7EEFD05E007F10C037868194600F079
:100B80006BF87B6803F1200207F10C03104619464D
:100B9000FFF784FE0346002BEDD17B682B4A1A63D6
:100BA0007B6824331846FFF747FC7B6820331846E0
:100BB0000A21FFF7A1FF7B6803F1200407F120035E
:100BC000002200920022019200220292002203924F
:100BD00018460B2100220023FFF71EFF6B4607F18A
:100BE0002C0292E8030083E8030007F120030ECBF8
:100BF0002046FFF765FF7B6803F1200407F134030B
:100C0000002200920022019200220292002203920E
:100C10001846042100220023FFF7FEFE6B4607F171
:100C2000400292E8030083E8030007F134030ECB8F
:100C30002046FFF745FF06489FED060A00F042F800
:100C40004FF4967001F0D2FA00BF9AE700002041FD
:100C5000300900206666663F80B485B000AF7860DA
:100C600039603B681B7A052B00D006E0FB68013336
:100C7000FB60FB680133FB6000BF1437BD465DF8C5
:100C8000047B704780B584B000AFF86087ED020A3E
:100C90007960FB6804331846FFF722FDFB687A6829
:100CA0009A60FB68BA681A60054B1B8801339AB2D8
:100CB000034B1A80FB6818461037BD4680BD00BF45
:100CC000000A002080B582B000AF786087ED000A8E
:100CD0007B6804331846FFF7D7FA7B683A681A60D6
:100CE0007B6804331846FFF7DFFA0837BD4680BD3E
:100CF00080B582B000AF78607B680B4A1A607B6871
:100D000024331846FFF72EFC7B681846FFF7D6FB06
:100D10000023002B02D0786801F054F97B68184654
:100D20000837BD4680BD00BF081A010880B582B0F3
:100D300000AF78607868FFF7DBFF786801F042F970
:100D40007B6818460837BD4680BD00BF80B582B0BD
:100D500000AF78607B6804331846FFF789FA7B6838
:100D600018460837BD4680BD80B582B000AF7860B8
:100D700039607B68012B40F0C1803A684FF6FF7301
:100D80009A4240F0BB805F489FED5F0A5F49FFF7E2
:100D900079FF5C485E495F4A04F0C2FA5E489FED05
:100DA0005F0A5F49FFF76EFF5B485949594A04F0F3
:100DB000B7FA5C489FED5C0A5C49FFF763FF59484E
:100DC0005349544A04F0ACFA59489FED5A0A5A491B
:100DD000FFF758FF56484E494E4A04F0A1FA5748CB
:100DE0009FED510A5649FFF74DFF54484849494A7B
:100DF00004F096FA53489FED540A5449FFF742FF16
:100E000050484349434A04F08BFA5148B1EE000A76
:100E10005049FFF737FF4E483D493E4A04F080FAFB
:100E20004D48B8EE000A4D49FFF72CFF4A483849B3
:100E3000384A04F075FA4A489FED3B0A4949FFF7E2
:100E400021FF47483249334A04F06AFA4648B0EE77
:100E5000080A4649FFF716FF43482D492D4A04F07A
:100E60005FFA4348BFEE000A4249FFF70BFF4048D4
:100E70002749284A04F054FA3F489FED2B0A3F497E
:100E8000FFF700FF3C482249224A04F049FA3C4857
:100E90009FED3C0A3C49FFF7F5FE39481C491D4AC5
:100EA00004F03EFA3948B3EE040A3949FFF7EAFE86
:100EB00036481749174A04F033FA3648B7EE080A9D
:100EC0003549FFF7DFFE33481149124A04F028FA8A
:100ED00032489FED150A3249FFF7D4FE2F480C49DE
:100EE0000C4A04F01DFA2F489FED0F0A2E49FFF718
:100EF000C9FE2C480649074A04F012FA0837BD46D5
:100F000080BD00BF300900206666D640301A010857
:100F10004D0D0008000000203C090020CDCC4C3EC7
:100F2000401A01084809002000000000501A01087A
:100F300054090020CDCC4C3F601A01086009002004
:100F4000701A01086C0900200AD7A33B801A010817
:100F500078090020901A010884090020A01A0108CD
:100F600090090020B01A01089C090020C01A01084D
:100F7000A8090020D01A0108B4090020E01A0108CD
:100F8000C009002000004843F01A0108CC090020E5
:100F9000001B0108D8090020101B0108E4090020EB
:100FA000201B0108F0090020301B010880B500AFAC
:100FB00001204FF6FF71FFF7D7FE80BD80B582B0EC
:100FC00000AF78607B68064A1A637B682433184652
:100FD000FFF7E2F94FF4967001F008F9F2E700BF6D
:100FE0000000C84280B582B000AF78607B680B4AD1
:100FF0001A607B6824331846FFF7B4FA7B681846FA
:10100000FFF75CFA0023002B02D0786800F0DAFFCB
:101010007B6818460837BD4680BD00BF481B0108E5
:1010200080B582B000AF78607868FFF7DBFF786842
:1010300000F0C8FF7B6818460837BD4680BD00BF7A
:1010400080B400AFFEE700BF80B483B000AF78602B
:101050000C37BD465DF8047B704700BF80B483B099
:1010600000AF7860024B1B685A1C014B1A60F9E70D
:10107000FC09002080B400AFFEE700BF80B582B05D
:1010800000AF144B7B60144B3B6007E03B681A1DBC
:101090003A607A68111D796012681A603A680F4BDD
:1010A0009A42F3D30E480F494FF000028842B8BF6E
:1010B00040F8042BFFF6FAAFDFF82C00016841F48A
:1010C0007001016001F01AFFFFF788F80837BD468C
:1010D00080BD00BF1C39010800000020B8080020B6
:1010E000B80800200414002088ED00E080B400AFB0
:1010F000FEE700BF80B582B000AF786013460A46B5
:101100007A803B807A883B8810461946002202F09C
:1011100071F802467B681A607B681B68002B00D15F
:10112000FEE77B6818460837BD4680BD80B588B0AD
:1011300004AFF860B9607A60FB70FB68124A1A600D
:10114000FB68BA685A60FB687A689A60FB68FA784C
:101150001A73FB685A68FB689B689BB2F968097B45
:101160000846F96810310090019100210291002198
:101170000391064811461A46FB6800F02DFFFB68F4
:1011800018461037BD4680BD10190108911100089E
:1011900080B582B000AF78607B681B6808331B683D
:1011A000786898470837BD4680BD00BF80B500AF5E
:1011B00001F04EF880BD00BF80B485B000AFF8608C
:1011C000B9607A60FB68BA689A600F4B1A68FB686E
:1011D0001A600D4B1A687B681A440B4B1A60FB6847
:1011E0007A685A60094B1B785A1CD1B2074A1170B1
:1011F0001A46074BF96843F82210FB681846143763
:10120000BD465DF8047B7047040000202C0A0020D6
:10121000040A002080B582B000AF78607B68184671
:101220000A211422FFF766FF7B6818460837BD467F
:1012300080BD00BF80B584B000AFF860B9607A604F
:10124000FB70FA68FB781046B9687A68FFF76EFFA2
:10125000FB680D4A1A60FB6814331846B968BA690E
:10126000FFF7AAFFFB6820331846FFF7D3FFFB68A0
:1012700005E0FB681846FFF757F808F03DFF1846F1
:101280001037BD4680BD00BFF818010880B582B098
:1012900000AF78607B68064A1A600023002B02D0FA
:1012A000786800F08FFE7B6818460837BD4680BD21
:1012B000301C010880B582B000AF78607868FFF715
:1012C000E5FF786800F07EFE7B6818460837BD466B
:1012D00080BD00BF80B483B000AF78607B68044AF3
:1012E0001A607B6818460C37BD465DF8047B704772
:1012F000301C010880B582B000AF78607B6818466A
:10130000FFF7E8FF7B68034A1A607B6818460837D6
:10131000BD4680BD081C010880B582B000AF786072
:101320007B68084A1A607B681846FFF7AFFF002306
:10133000002B02D0786800F045FE7B68184608371D
:10134000BD4680BD081C010880B582B000AF786042
:101350007868FFF7E1FF786800F034FE7B68184694
:101360000837BD4680BD00BF80B582B000AF786051
:101370007B681846FFF7BEFF7B68034A1A607B68EC
:1013800018460837BD4680BDE01B010880B483B015
:1013900000AF7860012318460C37BD465DF8047B2A
:1013A000704700BF80B483B000AF78600023184658
:1013B0000C37BD465DF8047B704700BF80B485B034
:1013C00000AFF860B9607A603B6018461437BD46DC
:1013D0005DF8047B704700BF80B483B000AF7860D5
:1013E0000C37BD465DF8047B704700BF80B483B006
:1013F00000AF786039600C37BD465DF8047B7047FC
:1014000080B483B000AF786039600C37BD465DF8BA
:10141000047B704780B582B000AF78607B68184667
:1014200000F018FA7B68034A1A607B681846083790
:10143000BD4680BDB018010890B587B002AFF86016
:10144000B9607A60FB70F868B9687A68FB783C6AC2
:101450000094FFF7EFFEFB680E4A1A60FB68243326
:101460001846FFF7D7FFFB684833184602F052FDD5
:10147000FB680BE0FB6824331846FFF773F8FFE7BF
:10148000FB681846FFF71AF808F036FE18461437BE
:10149000BD4690BD081A010890B587B002AFF8604C
:1014A000B9607A60FB70F868B9687A68FB783C6A62
:1014B0000094FFF7BFFEFB68094A1A60FB682433FB
:1014C0001846FFF7A7FFFB6805E0FB681846FEF724
:1014D000F5FF08F011FE18461437BD4690BD00BF59
:1014E000481B010890B587B002AFF860B9607A6018
:1014F000FB70F868B9687A68FB783C6A0094FFF77B
:1015000099FEFB68094A1A60FB6824331846FFF706
:1015100081FFFB6805E0FB681846FEF7CFFF08F087
:10152000EBFD18461437BD4690BD00BF801801087A
:1015300090B587B002AFF860B9607A60FB70F86868
:10154000B9687A68FB783C6A0094FFF773FEFB6821
:10155000034A1A60FB6818461437BD4690BD00BFA9
:10156000D019010890B587B002AFF860B9607A6011
:10157000FB70F868B9687A68FB783C6A0094FFF7FA
:1015800059FEFB68094A1A60FB6824331846FFF7C6
:1015900041FFFB6805E0FB681846FEF78FFF08F087
:1015A000ABFD18461437BD4690BD00BFA81C01080E
:1015B00090B587B002AFF860B9607A60FB70F868E8
:1015C000B9687A68FB783C6A0094FFF733FEFB68E1
:1015D000034A1A60FB6818461437BD4690BD00BF29
:1015E000301D010880B584B000AFF8603B1D83E872
:1015F0000600FB6818463B1D93E8060000F06AF9F8
:10160000FB68034A1A60FB6818461037BD4680BD68
:10161000B018010880B5ADF5CE5D02AF07F5CC730B
:10162000143B4FF47A7200921846794940F21452F2
:101630000123FFF701FF07F1B803143B4FF47A725F
:1016400000921846734982220123FFF725FF07F114
:10165000F8030C3B4FF47A72009218466E498222CE
:101660000123FFF73FFF07F17803083B4FF47A723D
:1016700000921846694982220123FFF759FF07F5B6
:101680009C734FF47A7200921846654982220123B6
:10169000FFF768FF07F15803103B4FF47A7200928E
:1016A0001846604982220123FFF782FF07F5CC53D9
:1016B00003F110031846FFF757FE07F1B803143B78
:1016C000243307F5CC5202F11C02136007F1F80332
:1016D0000C3B243307F5CD52136007F59C7324337C
:1016E00007F5CD5202F10402136007F5CC73143BE9
:1016F000243307F5CD5202F10802136007F5CC53ED
:1017000003F11C0307F5CC5202F114021360042309
:1017100007F5CC5202F11802136007F11803183BC9
:10172000184607F5CC5303F1140393E80600FFF7BE
:1017300059FF07F5CC73143B243307F5CD5202F162
:101740001402136007F5CD5303F1140307F5CD52CE
:1017500002F10C021360012307F5CD5202F11002D1
:10176000136007F13803143B184607F5CD5303F116
:101770000C0393E80600FFF735FF07F17803083BF9
:1017800007F5CC5202F110025A62FFF70FFDFEE797
:1017900007F13803143B1846FEF7E4FEFFE707F1B4
:1017A0001803183B1846FEF7DDFEFFE707F5CC539C
:1017B00003F11003184600F0BDF807F15803103B81
:1017C000184600F00DF9FFE707F59C73184600F086
:1017D000D9F8FFE707F17803083B1846FFF7DCF874
:1017E000FFE707F1F8030C3B1846FEF7CDFEFFE7D5
:1017F00007F1B803143B1846FFF7F4FBFFE707F5C2
:10180000CC73143B1846FFF773FA08F075FC00BF61
:10181000701B0108801B0108901B0108A01B010818
:10182000B01B0108C41B010880B582B000AF78600E
:101830007B68074A1A607B6800225A607B6808331D
:101840001846FEF74DFF7B6818460837BD4680BD39
:10185000E018010880B582B000AF78607B68184658
:10186000FFF7E2FF7B68054A1A607A687B685A6076
:101870007B6818460837BD4680BD00BFC818010800
:1018800080B483B000AF78607B681B6818460C3763
:10189000BD465DF8047B704780B483B000AF7860CC
:1018A0007B685B6818460C37BD465DF8047B704763
:1018B00090B583B000AF78607868FFF7E1FF044629
:1018C0007868FFF7E9FF03469B00234418460C376E
:1018D000BD4690BD80B588B000AFF8603B1D83E881
:1018E0000600FB681846FFF79FFFFB68104A1A6066
:1018F000FA68FB685A603B1DBB61B869FFF7C0FF1F
:10190000F861B869FFF7D4FF786108E0FB691B68EC
:101910003B61FA683B695A60FB690433FB61FA6911
:101920007B699A42F2D1FB6818462037BD4680BDDC
:10193000C818010880B582B000AF78607B68084A9B
:101940001A607B681846FFF7E7FC0023002B02D0E3
:10195000786800F037FB7B6818460837BD4680BDC5
:10196000E01B010880B582B000AF78607868FFF7AF
:10197000E1FF786800F026FB7B6818460837BD4613
:1019800080BD00BF80B582B000AF78607B680B4A35
:101990001A607B6824331846FEF7E4FD7B6818461E
:1019A000FEF78CFD0023002B02D0786800F00AFBC4
:1019B0007B6818460837BD4680BD00BFA81C0108DB
:1019C00080B582B000AF78607868FFF7DBFF786899
:1019D00000F0F8FA7B6818460837BD4680BD00BFA6
:1019E00080B582B000AF78607B68084A1A607B6877
:1019F0001846FEF763FD0023002B02D0786800F044
:101A0000E1FA7B6818460837BD4680BD301D0108E5
:101A100080B582B000AF78607868FFF7E1FF786842
:101A200000F0D0FA7B6818460837BD4680BD00BF7D
:101A300080B483B000AF78600B46FB70FB78002B5E
:101A400006D0094B084A116C7A680A431A6406E00A
:101A5000054B054A116C7A68D2430A401A640C3768
:101A6000BD465DF8047B70470038024080B586B003
:101A700004AF00237B6000F051FA0F4B1B68002B72
:101A80000FD002230093002301930023029300232D
:101A900003930A480A494FF48272002300F09CFA2B
:101AA00078607B68002B02D102F0D2F8FEE77B68F9
:101AB00018460837BD4680BD600A0020C11B0008DB
:101AC0008C1C010880B588B000AFF860B9607A60FE
:101AD0003B600023FB611D4B1B68002B30D0BB68B3
:101AE0003B617B687B61FB68BB61BB68052B1CDCD1
:101AF00001F094F80346022B0BD1144B1A6807F13E
:101B0000100310461946BA6A002301F0FDFBF86184
:101B100016E00E4B1A6807F1100310461946002212
:101B2000002301F0F1FBF8610AE0084B1A6807F1A5
:101B30001003104619463A68002301F0A5FCF8612D
:101B4000FB6918462037BD4680BD00BF600A0020F3
:101B500080B586B002AF78603960184B1B68DB68CF
:101B6000DB68FB60FB680433184601F09DF9FB68F5
:101B7000DB69012B1BD1FB689A697B681344F86809
:101B800019463A687B6800F0A7F80346012B0ED18E
:101B900000230093F86800217A680023FFF792FF82
:101BA000B860BB68002B02D102F052F8FEE7FB6878
:101BB0005B6AF86898471037BD4680BD580A002018
:101BC00080B584B000AF786007F10803184600F0D4
:101BD0003FF8F860BB68F868194600F003F800F0B9
:101BE000BDF8F1E780B584B000AF7860396000F0EF
:101BF00069FB07F10803184600F04EF8F860BB686F
:101C0000002B1ED13B68002B0AD17A68FB689A42F0
:101C100006D800F065FB7868F968FFF799FF12E0D5
:101C20000A4B1A687968FB68CB1A1046194601F00E
:101C3000E3FE00F055FB0346002B04D101F0D0FF7A
:101C400001E000F04DFB1037BD4680BD600A00206A
:101C500080B485B000AF78600E4B1B681B68002B0A
:101C600014BF00230123DBB21A467B681A607B682D
:101C70001B68002B05D1074B1B68DB681B68FB60EA
:101C800001E00023FB60FB6818461437BD465DF891
:101C9000047B7047580A002080B584B000AF78609C
:101CA00000F0A4FBF8600B4B1B68FA689A4205D25F
:101CB00000F0DCF87B6801221A6002E07B680022F9
:101CC0001A60044BFA681A60FB6818461037BD4664
:101CD00080BD00BF640A002080B586B000AFF86008
:101CE000B9607A603B6000237B61FB68BA685A6028
:101CF000FB68FA681A61BA687B689A4212D87A68F7
:101D00003B68D21AFB689B699A4202D301237B612C
:101D10001BE0104B1A68FB6804331046194601F0AB
:101D20008BF812E07A683B689A4206D2BA683B6840
:101D30009A4202D301237B6107E0074B1A68FB68D4
:101D400004331046194601F077F87B6918461837B6
:101D5000BD4680BD5C0A0020580A002080B58AB0CC
:101D600002AF70E0BB68002B6DDB3B69FB61FB6978
:101D70005B69002B04D0FB690433184601F094F82A
:101D80003B1D1846FFF788FFB861BB68092B59D87F
:101D900001A252F823F000BFC11D0008C11D0008B8
:101DA000C11D0008451E0008131E00083D1E000846
:101DB000C11D0008C11D0008451E0008131E0008B3
:101DC000FA68FB699B691A44FB68F8691146BA69AD
:101DD000FFF782FF0346012B1AD1FB695B6AF869A2
:101DE0009847FB69DB69012B12D1FA68FB699B6993
:101DF000134400220092F86900211A460023FFF7DD
:101E000061FE78617B69002B02D101F021FFFEE7C2
:101E100019E0FA68FB699A61FB699B69002B02D1A2
:101E200001F016FFFEE7FB699A69BB691344F86984
:101E30001946BA69BB69FFF74FFF04E0F86902F081
:101E400023F900E000BF084B1A6807F108031046A9
:101E500019460022002301F081FB0346002B81D1AB
:101E60002037BD4680BD00BF600A002080B588B025
:101E700002AF3DE0274B1B68DB681B687B61254B8D
:101E80001B68DB68DB683B613B690433184601F083
:101E90000BF83B695B6A386998473B69DB69012B42
:101EA00026D13B699A697B691344FB60FA687B69B8
:101EB0009A420ED93B69FA685A603B693A691A61DD
:101EC000144B1A683B6904331046194600F0B4FFFE
:101ED0000EE000230093386900217A690023FFF7A0
:101EE000F1FDB860BB68002B02D101F0B1FEFEE746
:101EF000084B1B681B68002BBCD1064B1B687B6022
:101F0000054B1A68034B1A60034B7A681A6018373E
:101F1000BD4680BD580A00205C0A002080B500AF95
:101F200001F06EFE154B1B68002B24D1144800F005
:101F300033FF144800F030FF134B114A1A60134B63
:101F4000104A1A600A200C21002201F053F90246BF
:101F50000A4B1A60094B1B68002B02D101F078FE76
:101F6000FEE7064B1B68002B05D0044B1B68184688
:101F7000074901F0F7FC01F053FE80BD600A002024
:101F8000300A0020440A0020580A00205C0A002081
:101F9000941C010880B582B000AF78607B68064A67
:101FA0001A637B6824331846FEF746FA4FF496709E
:101FB00000F01CF9F2E700BF0000204180B400AF40
:101FC000FEE700BF80B582B000AF7860786803F0AC
:101FD000F7F90837BD4680BD80B58AB002AFF8601A
:101FE000B9603B601346FB80FB68002B02D101F017
:101FF0002FFEFEE7BB6A042B02D901F029FEFEE7A3
:10200000FB881846396B00F093FDB861BB69002B63
:1020100072D0BB691A6BFB8803F18043013B9B00C4
:1020200013447B617B6923F007037B617B6903F0C9
:102030000703002B02D001F00BFEFEE7FB880093A4
:10204000B869B968BA6A7B6B00F07AFC7869F9689C
:102050003A6801F0FDFC0246BB691A60FB6A002B7E
:1020600002D0FB6ABA691A6001F0CAFD2E4B1B68E8
:102070005A1C2D4B1A602D4B1B68002B09D12B4B82
:10208000BA691A60284B1B68012B0FD100F0A2FC23
:102090000CE0274B1B68002B08D1244B1B68DA6A25
:1020A000BB6A9A4202D8214BBA691A60214B1B685D
:1020B0005A1C204B1A601F4B1A68BB691A64BB6913
:1020C000DA6A1D4B1B689A4203D9BB69DA6A1A4B5C
:1020D0001A60BB69DA6A13469B0013449B00174AD7
:1020E0001A44BB6904331046194600F081FE0123EF
:1020F000FB6101F095FD02E04FF0FF33FB61FB69EE
:10210000012B0BD10A4B1B68002B07D0074B1B6818
:10211000DA6ABB6A9A4201D201F062FDFB69184695
:102120002037BD4680BD00BF400B0020680A00205C
:102130004C0B00205C0B0020480B00206C0A002098
:1021400080B584B000AF786001F05AFD7B68002B49
:1021500002D1204B1B6800E07B68FB60FB68043306
:10216000184600F0A1FEFB689B6A002B04D0FB68B8
:102170001833184600F098FEFB68043316481946D9
:1021800000F036FE154B1B685A1C144B1A60144B9A
:102190001B685A1C124B1A6001F042FD114B1B6860
:1021A000002B14D00B4B1B68FA689A4209D10E4BD6
:1021B0001B68002B02D001F04BFDFEE701F010FD83
:1021C00005E001F01DFD00F0F5FC01F029FD1037E0
:1021D000BD4680BD680A0020140B0020280B00209B
:1021E0005C0B00204C0B0020600B002080B584B0FD
:1021F00000AF78600023FB607B68002B19D0114B87
:102200001B68002B02D001F023FDFEE700F05AF816
:102210000D4B1A687B681344BB600C4B1B6804337E
:10222000184600F041FEB86800F04CFC00F058F889
:10223000F860FB68002B01D101F0D2FC1037BD46DD
:1022400080BD00BF600B0020440B0020680A002006
:1022500080B586B004AF00230093002301930023D0
:102260000293002303931348134982220023FFF7AC
:10227000B3FE78607B68012B02D1FFF7F7FB786033
:102280007B68012B0CD101F0E3FC0C4B01221A609E
:102290000B4B00221A6000F02DFF01F039FC05E025
:1022A0007B68002B02D101F0D3FCFEE70837BD4666
:1022B00080BD00BF1D290008D81C01084C0B002060
:1022C000440B002080B400AF044B1B685A1C034B26
:1022D0001A60BD465DF8047B704700BF600B0020AC
:1022E00080B582B000AF00237B60384B1B68002BA9
:1022F00002D101F0ADFCFEE701F082FC334B1B681C
:102300005A1E324B1A60314B1B68002B56D1304B92
:102310001B68002B52D02FE02E4BDB68DB683B6044
:102320003B681833184600F0BFFD3B68043318467D
:1023300000F0BAFD3B68DA6A274B1B689A4203D962
:102340003B68DA6A244B1A603B68DA6A13469B00E2
:1023500013449B00214A1A443B6804331046194633
:1023600000F046FD3B68DA6A1D4B1B68DB6A9A4247
:1023700002D31C4B01221A60164B1B68002BCBD1D9
:10238000194B1B68002B11D00CE000F041F80346FC
:10239000002B02D0134B01221A60134B1B685A1EEC
:1023A000114B1A60104B1B68002BEED10D4B1B68B4
:1023B000012B03D101237B6001F012FC01F030FC02
:1023C0007B6818460837BD4680BD00BF600B002003
:1023D000400B0020000B0020480B00206C0A00205E
:1023E000680A0020540B0020500B002080B582B0FA
:1023F00000AF01F005FC054B1B687B6001F010FC91
:102400007B6818460837BD4680BD00BF440B0020DE
:1024100080B586B000AF00237B61524B1B68002B58
:1024200040F08D80504B1B685A1C4F4B1A604E4B2E
:102430001B683B613B69002B18D14C4B1B681B6828
:10244000002B02D001F004FCFEE7484B1B68FB6048
:10245000474B1A68454B1A60454BFA681A60454B62
:102460001B685A1C434B1A6000F0A4FB424B1B68CC
:102470003A699A424ED33D4B1B681B68002B01D131
:10248000012300E00023002B04D03B4B4FF0FF3230
:102490001A603FE0354B1B68DB68DB68BB60BB68DC
:1024A0005B687B603A697B689A4203D2324B7A68F8
:1024B0001A602FE0BB680433184600F0F5FCBB68D7
:1024C0009B6A002B04D0BB681833184600F0ECFC64
:1024D000BB68DA6A294B1B689A4203D9BB68DA6A7F
:1024E000264B1A60BB68DA6A13469B0013449B00B4
:1024F000234A1A44BB6804331046194600F078FC9E
:10250000BB68DA6A1F4B1B68DB6A9A4201D301235E
:102510007B61B0E71B4B1B68DA6A194913469B00C5
:1025200013449B000B441B68012B01D901237B61E1
:10253000154B1B68002B09D1FEF786FD06E0124BF8
:102540001B685A1C104B1A60FEF77EFD0F4B1B6870
:10255000002B01D001237B617B6918461837BD46EB
:1025600080BD00BF600B0020440B0020F80A002053
:10257000FC0A0020580B002008000020480B002017
:102580006C0A0020680A0020500B0020540B002029
:1025900080B582B000AF414B1B68002B03D0404B8D
:1025A00001221A6077E03E4B00221A6000F0C0FD65
:1025B00002463C4B1A603B4B1A683B4B1B689A42E5
:1025C00009D93A4B1B68D96C364A1068364A1268EA
:1025D000821A0A44DA64334B1A68334B1A60334B5D
:1025E0001B681A68314B1B681B6B9A4208D82F4B2B
:1025F0001A682E4B1B68343310461946FEF720FD2F
:102600002A4B1B681B6B18462949142203F07CF9DE
:102610000346002B09D0254B1A68244B1B68343322
:1026200010461946FEF70CFD0CE00BE0214B1B6831
:10263000002B02D101F00CFBFEE71E4B1B685A1E5B
:102640001C4B1A601B4B1A681B4913469B00134412
:102650009B000B441B68002BE8D0164B1A681346EE
:102660009B0013449B00144A13447B607B685B68A7
:102670005A687B685A607B685A687B6808339A425C
:1026800004D17B685B685A687B685A607B685B68CA
:10269000DA68064B1A600837BD4680BD600B002023
:1026A000540B0020680B0020640B0020680A0020F7
:1026B000141D0108480B00206C0A002080B584B06E
:1026C00000AF786039607B68002B02D101F0C0FA5E
:1026D000FEE7124B1B6818337868194600F0ACFB14
:1026E0000E4B1B680433184600F0DEFB3B68B3F169
:1026F000FF3F07D1094B1B6804330948194600F016
:1027000077FB07E0074B1A683B681344FB60F868E7
:1027100000F0D8F91037BD4680BD00BF680A002020
:102720002C0B0020440B002080B584B000AF7860F3
:1027300039607B68002B02D101F08AFAFEE70C4B6E
:102740001B6818337868194600F052FB084B1B6869
:102750000433184600F0A8FB064B1A683B68134484
:10276000FB60F86800F0AEF91037BD4680BD00BFD1
:10277000680A0020440B002080B584B000AF786068
:102780007B68DB68DB68BB60BB68002B02D101F0B3
:102790005FFAFEE7BB681833184600F085FB1E4B56
:1027A0001B68002B1DD1BB680433184600F07CFB6E
:1027B000BB68DA6A194B1B689A4203D9BB68DA6AAC
:1027C000164B1A60BB68DA6A13469B0013449B00E1
:1027D000134A1A44BB6804331046194600F008FB3C
:1027E00005E0BB6818330F48194600F001FBBB68D1
:1027F000DA6A0D4B1B68DB6A9A4205D90123FB603C
:102800000A4B01221A6001E00023FB60FB681846B6
:102810001037BD4680BD00BF600B0020480B002074
:102820006C0A0020000B0020680A0020540B0020D6
:1028300080B582B000AF78607B68002B02D101F0D8
:1028400007FAFEE7054B1A687B681A60044B1A68A2
:102850007B685A600837BD4680BD00BF580B00201A
:10286000440B002080B584B000AF786039607B688D
:10287000002B02D101F0ECF9FEE73B68002B02D1FE
:1028800001F0E6F9FEE701F0BBF91C4B1B68BB60E9
:102890003B681B68B3F1FF3F02D10023FB6026E0D9
:1028A0007B681A68164B1B689A4207D07B685A6887
:1028B000BB689A4202D80123FB6018E07B685B6822
:1028C000BA68D21A3B681B689A420ED23B681A68F3
:1028D0007B685968BB68CB1A1A443B681A607868F1
:1028E000FFF7A6FF0023FB6001E00123FB6001F07E
:1028F00097F9FB6818461037BD4680BD440B002091
:10290000580B002080B400AF034B01221A60BD4673
:102910005DF8047B704700BF540B002080B582B087
:1029200000AF786000F094F8044B1B68012B01D9CC
:1029300001F056F9FEF792FBF4E700BF6C0A0020A5
:1029400080B586B000AFF860B9607A603B60002364
:102950007B6112E0BA687B6913441A78F9687B6975
:102960000B4430331A71BA687B6913441B78002B0F
:1029700000D105E07B6901337B617B69092BE9D9D3
:10298000FB68002283F83D207B68042B01D90423D7
:102990007B60FB687A68DA62FB687A689A64FB6835
:1029A0000433184600F018FAFB681833184600F094
:1029B00013FAFB68FA681A617B68C3F10502FB68C9
:1029C0009A61FB68FA685A62FB680022DA64183779
:1029D000BD4680BD80B582B000AF00237B600CE0B7
:1029E0007A6813469B0013449B00114A134418460F
:1029F00000F0D2F97B6801337B607B68042BEFD950
:102A00000C4800F0C9F90C4800F0C6F90B4800F07A
:102A1000C3F90B4800F0C0F90A4800F0BDF90A4BB1
:102A2000044A1A60094B044A1A600837BD4680BD43
:102A30006C0A0020D00A0020E40A0020000B0020CD
:102A4000140B00202C0B0020F80A0020FC0A0020A8
:102A500080B582B000AF28E0FFF734FC164B1B684E
:102A6000002B14BF00230123DBB27B60FFF738FC8F
:102A70007B68002B19D101F0C3F80F4BDB68DB68D2
:102A80003B603B680433184600F00EFA0B4B1B68A2
:102A90005A1E0A4B1A600A4B1B685A1E084B1A60D2
:102AA00001F0BEF8386800F075F8054B1B68002B84
:102AB000D2D10837BD4680BD140B0020400B00204A
:102AC000280B002080B582B000AF7860134B1B68E4
:102AD0007A685A60124B1B687A689A4209D2114B85
:102AE0001A680E4B1B6804331046194600F0A4F90F
:102AF00010E00D4B1A68094B1B6804331046194649
:102B000000F09AF9094B1B687A689A4202D2074B87
:102B10007A681A600837BD4680BD00BF680A002089
:102B2000440B0020FC0A0020F80A002008000020C6
:102B300080B584B000AF03463960FB80502001F0BF
:102B40008BFAF860FB68002B1FD03B68002B06D186
:102B5000FB889B00184601F07FFA034600E03B68C3
:102B6000FA681363FB681B6B002B05D1F86801F052
:102B70008BFA0023FB6008E0FB681A6BFB889B0064
:102B80001046A5211A4602F08DFFFB681846103743
:102B9000BD4680BD80B582B000AF78607B681B6B9E
:102BA000184601F071FA786801F06EFA0837BD46F0
:102BB00080BD00BF80B483B000AF0E4B1B681B68A4
:102BC000002B01D1012300E00023002B04D00A4B8D
:102BD0004FF0FF321A6008E0064B1B68DB68DB68C9
:102BE0007B607B685A68044B1A600C37BD465DF801
:102BF000047B7047F80A00200800002080B483B0EE
:102C000000AF054B1B687B607B6818460C37BD46E0
:102C10005DF8047B704700BF680A002080B483B071
:102C200000AF0B4B1B68002B02D101237B6008E037
:102C3000084B1B68002B02D102237B6001E00023BC
:102C40007B607B6818460C37BD465DF8047B704797
:102C50004C0B0020600B002080B584B000AF786082
:102C60007B68FB607B68002B4AD0FB68DA6A264BE6
:102C70001B68DB6A9A4243D2FB689B69002B06DB28
:102C8000214B1B68DB6AC3F10502FB689A61FB6894
:102C90005969FB68DA6A13469B0013449B001B4A80
:102CA0001344994201D1012300E00023002B22D0DC
:102CB000FB680433184600F0F7F8134B1B68DA6A18
:102CC000FB68DA62FB68DA6A114B1B689A4203D927
:102CD000FB68DA6A0E4B1A60FB68DA6A13469B00DF
:102CE00013449B00094A1A44FB68043310461946F2
:102CF00000F07EF804E0044B1B68DA6AFB68DA62D5
:102D00001037BD4680BD00BF680A00206C0A002055
:102D1000480B002080B584B000AF78607B68FB6012
:102D20007B68002B30D0FB68DA6AFB689B6C9A42A8
:102D30002AD0FB680433184600F0B6F8FB689A6C9A
:102D4000FB68DA62FB689B69002B05DBFB68DB6ACA
:102D5000C3F10502FB689A61FB68DA6A0C4B1B68D9
:102D60009A4203D9FB68DA6A094B1A60FB68DA6A8F
:102D700013469B0013449B00064A1A44FB68043325
:102D80001046194600F034F81037BD4680BD00BF2C
:102D9000480B00206C0A002080B483B000AF78603C
:102DA0007B6803F108027B685A607B684FF0FF3252
:102DB0009A607B6803F108027B68DA607B6803F144
:102DC00008027B681A617B6800221A600C37BD46D6
:102DD0005DF8047B704700BF80B483B000AF7860BB
:102DE0007B6800221A610C37BD465DF8047B704792
:102DF00080B485B000AF786039607B685B68FB6049
:102E00003B68FA685A60FB689A683B689A60FB689E
:102E10009B683A685A60FB683A689A603B687A68CF
:102E20001A617B681B685A1C7B681A601437BD46A0
:102E30005DF8047B704700BF80B485B000AF786058
:102E400039603B681B68BB60BB68B3F1FF3F03D1CF
:102E50007B681B69FB600CE07B680833FB6002E069
:102E6000FB685B68FB60FB685B681A68BB689A423A
:102E7000F6D9FB685A683B685A603B685B683A68F9
:102E80009A603B68FA689A60FB683A685A603B68E7
:102E90007A681A617B681B685A1C7B681A60143751
:102EA000BD465DF8047B704780B485B000AF7860A4
:102EB0007B681B69FB607B685B687A6892689A60D4
:102EC0007B689B687A6852685A60FB685A687B68BE
:102ED0009A4203D17B689A68FB685A607B6800223B
:102EE0001A61FB681B685A1EFB681A60FB681B6846
:102EF00018461437BD465DF8047B704780B500AFB7
:102F0000154B154AD2F8882042F47002C3F8882085
:102F1000124B124A126842F001021A600F4B002253
:102F20009A600E4A0D4B1B6823F0847323F48033A0
:102F300013600A4B0A4A5A60084B084A126822F486
:102F400080221A60054B0022DA6000F00BF8024B79
:102F50004FF000629A6080BD00ED00E00038024052
:102F60001030002480B400AF234B234A126C42F08F
:102F700080521A64214B214A126842F480421A603E
:102F80001D4B1D4A92689A601B4B1B4A926842F483
:102F900000429A60184B184A926842F4A0529A6014
:102FA000154B174A5A60144B134A126842F080724C
:102FB0001A6000BF104B1B6803F00073002BF9D0A0
:102FC000104B40F205621A600B4B0B4A926822F0DC
:102FD00003029A60084B084A926842F002029A6023
:102FE00000BF054B9B6803F00C03082BF9D1BD46CD
:102FF0005DF8047B704700BF00380240007000405D
:1030000010540007003C024080B485B000AF7860E7
:103010000B4B1B68002B02D1094B0A4A1A60084B64
:103020001B68FB60064B1A687B681A44044B1A60E5
:10303000FB6818461437BD465DF8047B704700BF37
:103040006C0B00200414002080B483B000AF7860C3
:103050004FF0FF3318460C37BD465DF8047B7047D0
:1030600080B483B000AF786039603B684FF40052A1
:103070005A60002318460C37BD465DF8047B704744
:1030800080B483B000AF7860012318460C37BD468A
:103090005DF8047B704700BF80B485B000AFF86076
:1030A000B9607A60002318461437BD465DF8047B8A
:1030B000704700BF80B485B000AFF860B9607A6037
:1030C000002318461437BD465DF8047B704700BFE7
:1030D00080B485B000AFF860B9607A607B6818464C
:1030E0001437BD465DF8047B704700BF80B400AF65
:1030F000FEE700BF80B584B000AF01200121FEF7DC
:1031000097FC4FF0FF33BB605423BB800023BB818F
:103110000023FB803B1D4FF08040194600F006FF66
:103120004FF08040012100F077FF1037BD4680BD91
:1031300080B500AF4FF0804000F062FF03461846B4
:1031400080BD00BF80B584B000AF786039607B6817
:10315000FB60FB68002B02D100F07AFDFEE700F077
:103160004FFDFB681A68FB68DB6BF968096C01FBB3
:1031700003F31A44FB685A60FB6800229A63FB68F9
:103180001A68FB689A60FB681A68FB68DB6B013B96
:10319000F968096C01FB03F31A44FB68DA60FB6809
:1031A0004FF0FF325A64FB684FF0FF329A643B687D
:1031B000002B0ED1FB681B69002B14D0FB68103369
:1031C0001846FFF7D9FA0346012B0CD100F008FD91
:1031D00009E0FB6810331846FFF7DEFDFB68243377
:1031E0001846FFF7D9FD00F01BFD012318461037E4
:1031F000BD4680BD80B588B000AFF860B9601346A9
:10320000FB710023FB61FB68002B2AD0542000F0E7
:1032100023FFB861BB69002B23D0FB68BA6802FBAF
:1032200003F301337B61786900F016FF0246BB6946
:103230001A60BB691B68002B10D0BB69FA68DA639F
:10324000BB69BA681A64B8690121FFF77BFFBB69E3
:10325000FA7983F85020BB69FB6102E0B86900F09D
:1032600013FFFB69002B02D100F0F2FCFEE7FB69C3
:1032700018462037BD4680BD80B584B000AF0346F8
:10328000FB71542000F0E8FEF860FB68002B30D0A2
:10329000FB6800225A60FB6800221A60FB6800226B
:1032A0009A60FB680022DA60FB6800229A63FB6880
:1032B0000122DA63FB6800221A64FB684FF0FF32D8
:1032C0005A64FB684FF0FF329A64FB68FA7983F81E
:1032D0005020FB6810331846FFF75EFDFB6824336F
:1032E0001846FFF759FDF86800210022002300F07E
:1032F0000BF8FB68002B02D100F0AAFCFEE7FB688C
:1033000018461037BD4680BD80B588B000AFF86064
:10331000B9607A603B600023FB61FB68BB61BB69FD
:10332000002B02D100F094FCFEE7BB68002B03D118
:10333000BB691B6C002B01D1012300E00023002B93
:1033400002D100F085FCFEE73B68022B03D1BB698C
:10335000DB6B012B01D1012300E00023002B02D104
:1033600000F076FCFEE7FFF759FC0346002B02D184
:103370007B68002B01D1012300E00023002B02D148
:1033800000F066FCFEE700F03BFCBB699A6BBB6992
:10339000DB6B9A4202D33B68022B16D1B869B9683D
:1033A0003A6800F0D7F9BB695B6A002B09D0BB69AA
:1033B00024331846FFF7E0F90346012B01D100F052
:1033C0000FFC00F02DFC012359E07B68002B03D19A
:1033D00000F026FC002352E0FB69002B06D107F128
:1033E00010031846FFF724FA0123FB6100F018FCD4
:1033F000FEF768FF00F004FCBB695B6CB3F1FF3FB4
:1034000002D1BB6900225A64BB699B6CB3F1FF3FD8
:1034100002D1BB6900229A6400F002FC07F110029D
:103420003B1D10461946FFF71DFA0346002B1ED11F
:10343000B86900F07FFA0346002B12D0BB6903F194
:1034400010027B6810461946FFF738F9B86900F09A
:103450000FFAFEF745FF0346002B0FD100F0C0FB2B
:103460000CE0B86900F004FAFEF73AFF8BE7B869A0
:1034700000F0FEF9FEF734FF002300E083E7184672
:103480002037BD4680BD00BF80B588B000AFF86072
:10349000B9607A603B60FB68BB61BB69002B02D1FD
:1034A00000F0D6FBFEE7BB68002B03D1BB691B6CA9
:1034B000002B01D1012300E00023002B02D100F0FA
:1034C000C7FBFEE73B68022B03D1BB69DB6B012B1B
:1034D00001D1012300E00023002B02D100F0B8FB52
:1034E000FEE700F027FC00F0B3FB7861BB699A6B44
:1034F000BB69DB6B9A4202D33B68022B24D1B869CB
:10350000B9683A6800F026F9BB699B6CB3F1FF3FDC
:1035100012D1BB695B6A002B13D0BB6924331846F8
:10352000FFF72AF90346002B0BD07B68002B08D04D
:103530007B6801221A6004E0BB699B6C5A1CBB6962
:103540009A640123FB6101E00023FB61786900F0CC
:1035500089FBFB6918462037BD4680BD80B58AB01F
:1035600000AFF860B9607A603B6000237B62FB6863
:103570003B623B6A002B02D100F06AFBFEE7BB68AE
:10358000002B03D13B6A1B6C002B01D1012300E00F
:103590000023002B02D100F05BFBFEE7FFF73EFBB0
:1035A0000346002B02D17B68002B01D1012300E0F0
:1035B0000023002B02D100F04BFBFEE700F020FBC4
:1035C0003B6A9B6B002B3BD03B6ADB68FB61386A34
:1035D000B96800F027F93B68002B1CD13B6A9B6B54
:1035E0005A1E3B6A9A633B6A1B68002B04D1FFF7A3
:1035F00005FB02463B6A5A603B6A1B69002B1BD0E5
:103600003B6A10331846FFF7B7F80346012B13D176
:1036100000F0E6FA10E03B6AFA69DA603B6A5B6A3E
:10362000002B09D03B6A24331846FFF7A5F8034660
:10363000002B01D000F0D4FA00F0F2FA012366E08A
:103640007B68002B03D100F0EBFA00235FE07B6A7C
:10365000002B06D107F114031846FFF7E9F8012300
:103660007B6200F0DDFAFEF72DFE00F0C9FA3B6A3E
:103670005B6CB3F1FF3F02D13B6A00225A643B6AA4
:103680009B6CB3F1FF3F02D13B6A00229A6400F0C9
:10369000C7FA07F114023B1D10461946FFF7E2F87E
:1036A0000346002B2BD1386A00F02EF90346002B7D
:1036B0001FD03B6A1B68002B08D100F0A1FA3B6ABF
:1036C0005B681846FFF7C8FA00F0AAFA3B6A03F1F4
:1036D00024027B6810461946FEF7F0FF386A00F0B6
:1036E000C7F8FEF7FDFD0346002B0FD100F078FA76
:1036F0000CE0386A00F0BCF8FEF7F2FD5EE7386ACD
:1037000000F0B6F8FEF7ECFD002300E056E718469F
:103710002837BD4680BD00BF80B584B000AF78605B
:103720007B68FB60FB68002B02D100F091FAFEE79A
:10373000F86800F03FF9FB681B68002B04D0FB68B9
:103740001B68184600F0A0FCF86800F09DFC1037DC
:10375000BD4680BD80B584B000AFF860B9607A60C6
:10376000FB681B6C002B0CD1FB681B68002B51D134
:10377000FB685B681846FFF7CDFAFB6800225A60C9
:1037800048E07B68002B1AD1FB689A68FB681B6CC9
:103790001046B9681A4602F0EBF8FB689A68FB68B5
:1037A0001B6C1A44FB689A60FB689A68FB685B684C
:1037B0009A422FD3FB681A68FB689A602AE0FB687C
:1037C000DA68FB681B6C1046B9681A4602F0D0F83C
:1037D000FB68DA68FB681B6C5B421A44FB68DA60C2
:1037E000FB68DA68FB681B689A4207D2FB685A6874
:1037F000FB681B6C5B421A44FB68DA607B68022B37
:1038000008D1FB689B6B002B04D0FB689B6B5A1E96
:10381000FB689A63FB689B6B5A1CFB689A631037C2
:10382000BD4680BD80B582B000AF786039607B68EE
:103830001B68002B19D07B68DA687B681B6C1A4404
:103840007B68DA607B68DA687B685B689A4203D3DE
:103850007B681A687B68DA607B68DA687B681B6C57
:10386000386811461A4602F083F80837BD4680BD15
:1038700080B582B000AF786000F0C2F914E07B68D8
:103880005B6A002B0AD07B6824331846FEF774FF6E
:103890000346002B03D0FFF735F800E008E07B6813
:1038A0009B6C5A1E7B689A647B689B6C002BE6DCE1
:1038B0007B684FF0FF329A6400F0B2F900F0A0F993
:1038C00014E07B681B69002B0FD07B68103318460F
:1038D000FEF752FF0346002B01D0FFF713F87B6879
:1038E0005B6C5A1E7B685A6400E003E07B685B6C8B
:1038F000002BE6DC7B684FF0FF325A6400F090F951
:103900000837BD4680BD00BF80B584B000AF786089
:1039100000F076F97B689B6B002B02D10123FB60E2
:1039200001E00023FB6000F07BF9FB6818461037CC
:10393000BD4680BD80B584B000AF786000F060F90E
:103940007B689A6B7B68DB6B9A4202D10123FB6038
:1039500001E00023FB6000F063F9FB6818461037B4
:10396000BD4680BD80B485B000AF7860396000236B
:10397000FB6014E00E4BFA6853F83230002B0BD189
:103980000B4BFA68396843F83210094AFB68DB00D0
:1039900013447A685A6005E0FB680133FB60FB68FA
:1039A000072BE7D91437BD465DF8047B704700BF8D
:1039B000C013002080B485B000AF78600023FB60A6
:1039C00010E00C4AFB68DB0013445A687B689A429B
:1039D00005D1084BFA68002143F8321005E0FB6876
:1039E0000133FB60FB68072BEBD91437BD465DF84C
:1039F000047B7047C013002080B584B000AF7860AE
:103A000039607B68FB6000F0FBF8FB685B6CB3F12E
:103A1000FF3F02D1FB6800225A64FB689B6CB3F144
:103A2000FF3F02D1FB6800229A6400F0F9F8FB68BE
:103A30009B6B002B05D1FB68243318463968FEF7D1
:103A400073FEF868FFF714FF1037BD4680BD00BF56
:103A500080B485B000AFF860B9607A60FB68043B61
:103A6000FB60FB684FF080721A60FB68043BFB60F0
:103A7000BA68FB681A60FB68043BFB600C4AFB6891
:103A80001A60FB68143BFB607A68FB681A60FB688D
:103A9000043BFB60FB686FF002021A60FB68203B8E
:103AA000FB60FB6818461437BD465DF8047B704721
:103AB000B53A000880B500AF054B1B68B3F1FF3F76
:103AC00002D000F0C5F8FEE700F0C2F8FEE700BF44
:103AD00020000020064B19680868B0E8F04F80F31A
:103AE0000988BFF36F8F4FF0000080F31188704793
:103AF000680A002005480068006880F3088862B6FC
:103B0000BFF34F8FBFF36F8F00DF00BF08ED00E002
:103B100080B584B000AF2C4BFB60FB681B78DBB238
:103B2000BB60FB68FF221A70FB681B78DBB2FB717D
:103B3000FB79DBB203F05003DAB2244B1A70244B4A
:103B400007221A6009E0224B1B685A1E204B1A609C
:103B5000FB79DBB25B00DBB2FB71FB79DBB2DBB282
:103B60005BB2002BEFDB1A4B1B681A02184B1A6072
:103B7000174B1B6803F4E062154B1A60BB68DAB29E
:103B8000FB681A70134B134A126842F470021A60F1
:103B9000104B104A126842F070421A6000F0A6F80A
:103BA0000D4B00221A6000F0BBF80C4B0B4A126858
:103BB00042F040421A60FFF79DFFFFF77BFF0023B2
:103BC00018461037BD4680BD00E400E0700B0020B1
:103BD000740B002020ED00E02000002034EF00E016
:103BE00080B400AF054B4FF080521A60BFF34F8F87
:103BF000BFF36F8FBD465DF8047B704704ED00E0B6
:103C000080B500AF00F024F8044B1B685A1C034B2E
:103C10001A60BFF34F8FBFF36F8F80BD200000206D
:103C200080B500AF094B1B68002B02D100F010F8E3
:103C3000FEE7064B1B685A1E044B1A60034B1B68B9
:103C4000002B02D1002000F00DF880BD20000020E4
:103C5000EFF311804FF0500181F31188704700237A
:103C6000184600BF80F31188704700BFEFF309804A
:103C7000BFF36F8F124B1A681EF0100F08BF20EDB4
:103C8000108A20E9F04F10604DF8043D4FF05000CD
:103C900080F31188FEF77CFC4FF0000080F3118860
:103CA00008BC19680868B0E8F04F1EF0100F08BF94
:103CB000B0EC108A80F30988BFF36F8F704700BFA4
:103CC000680A002080B500AFFFF7C2FFFEF7A0FB37
:103CD0000346002B03D0044B4FF080521A600020A3
:103CE000FFF7C0FF80BD00BF04ED00E080B400AF6F
:103CF000074B084A1168084AA2FB01029209013ADF
:103D00001A60064B07221A60BD465DF8047B7047B7
:103D100014E000E00C000020D34D621010E000E041
:103D2000DFF80C00016841F4700101607047000089
:103D300088ED00E080B582B000AFEFF305837B60D3
:103D40007B680F2B0CD90D4A7B6813441B78FB70E2
:103D50000B4B1B78FA789A4202D2FFF779FFFEE705
:103D6000084B1B6803F4E062074B1B689A4202D9B8
:103D7000FFF76EFFFEE70837BD4680BDF0E300E0C9
:103D8000700B00200CED00E0740B002082B080B5B9
:103D900082B000AF7860396007F1100181E80C0053
:103DA0007B683B613B687B613B68184607F110010B
:103DB000FCF71AFE0837BD46BDE8804002B07047E8
:103DC00082B080B582B000AF7860396007F1100131
:103DD00081E80C007B683B613B681B687B617B6909
:103DE00018463968FCF700FE0837BD46BDE880403C
:103DF00002B0704780B582B000AF78607B68203336
:103E000018460421FCF736FD0837BD4680BD00BFCB
:103E100080B588B000AF78607868FFF7EBFF07F1F6
:103E20000C031846FCF794FC05E007F10C037868D6
:103E3000194600F013F87B6803F1200207F10C0328
:103E400010461946FCF72AFD0346002BEDD14FF42E
:103E50009670FEF7CBF900BFEDE700BFB0B592B0AA
:103E600004AF7860396000237B633B681B7A042BC6
:103E700002D00A2B43D049E07B6803F120053B6860
:103E80001C6807F10C03002200920022019200221C
:103E90000292002203921846052100220023FCF71B
:103EA000BBFD6B4607F1140207CA83E8070007F160
:103EB0000C030CCB28462146FFF768FF7B6803F113
:103EC000200407F120030022009200220192002228
:103ED0000292002203921846052100220023FCF7DB
:103EE0009BFD6B4607F1280207CA83E8070007F12C
:103EF00020030CCB20463968FFF762FF06E07B6B9E
:103F000001337B637B6B01337B6300BF00BF3837BA
:103F1000BD46B0BD80B483B000AF78607B68184602
:103F20000C37BD465DF8047B704700BF80B485B098
:103F300000AF786039600023FB817B681B88FB81C0
:103F40007A68284B9A4213D07A68274B9A420FD04E
:103F50007B68B3F1804F0BD07A68244B9A4207D02C
:103F60007A68234B9A4203D07A68224B9A4208D14E
:103F7000FB8923F07003FB813B685A88FB8913435C
:103F8000FB817A681C4B9A420CD07A681B4B9A4290
:103F900008D0FB8923F44073FB813B681A89FB89B5
:103FA0001343FB817B68FA891A803B685A687B68F7
:103FB000DA623B681A887B681A857A68094B9A42EC
:103FC00003D07A68084B9A4204D13B689B7A1A4620
:103FD0007B681A867B6801229A821437BD465DF899
:103FE000047B7047000001400004014000040040D1
:103FF00000080040000C0040001000400014004089
:1040000080B483B000AF78607B685B6A18460C3779
:10401000BD465DF8047B704780B483B000AF786024
:104020000B46FB70FB78002B08D07B681B889BB28B
:1040300043F001039AB27B681A8007E07B681B8813
:104040009BB223F001039AB27B681A800C37BD46FD
:104050005DF8047B704700BF80B584B000AF786026
:10406000FEF730F9786801F0A3F90346FB60FEF72C
:1040700037F9FB68002B01D1FCF7FCFFFB68184601
:104080001037BD4680BD00BF80B582B000AF7860FC
:104090007B68002B06D0FEF715F9786801F090F9DF
:1040A000FEF71EF90837BD4680BD00BF81F0004114
:1040B00002E000BF83F0004330B54FEA41044FEA0D
:1040C000430594EA050F08BF90EA020F1FBF54EAA8
:1040D000000C55EA020C7FEA645C7FEA655C00F044
:1040E000E2804FEA5454D4EB5555B8BF6D420CDD15
:1040F0002C4480EA020281EA030382EA000083EA98
:10410000010180EA020281EA0303362D88BF30BD37
:1041100011F0004F4FEA01314FF4801C4CEA11318D
:1041200002D0404261EB410113F0004F4FEA0333EC
:104130004CEA133302D0524263EB430394EA050F77
:1041400000F0A780A4F10104D5F1200E0DDB02FAE6
:104150000EFC22FA05F2801841F1000103FA0EF27A
:10416000801843FA05F359410EE0A5F120050EF140
:10417000200E012A03FA0EFC28BF4CF0020C43FA71
:1041800005F3C01851EBE37101F0004507D54FF07E
:10419000000EDCF1000C7EEB00006EEB0101B1F5CE
:1041A000801F1BD3B1F5001F0CD349085FEA300014
:1041B0004FEA3C0C04F101044FEA445212F5800F1F
:1041C00080F09A80BCF1004F08BF5FEA500C50F1BC
:1041D000000041EB045141EA050130BD5FEA4C0C9F
:1041E000404141EB010111F4801FA4F10104E9D128
:1041F00091F0000F04BF01460020B1FA81F308BF1F
:104200002033A3F10B03B3F120020CDA0C3208DDEA
:1042100002F1140CC2F10C0201FA0CF021FA02F1C5
:104220000CE002F11402D8BFC2F1200C01FA02F135
:1042300020FA0CFCDCBF41EA0C019040E41AA2BF5A
:1042400001EB0451294330BD6FEA04041F3C1CDA22
:104250000C340EDC04F11404C4F1200220FA04F042
:1042600001FA02F340EA030021FA04F345EA0301EC
:1042700030BDC4F10C04C4F1200220FA02F001FAAE
:1042800004F340EA0300294630BD21FA04F0294630
:1042900030BD94F0000F83F4801306BF81F48011C9
:1042A0000134013D4EE77FEA645C18BF7FEA655C3C
:1042B00029D094EA050F08BF90EA020F05D054EA0E
:1042C000000C04BF1946104630BD91EA030F1EBF13
:1042D0000021002030BD5FEA545C05D14000494117
:1042E00028BF41F0004130BD14F580043CBF01F50A
:1042F000801130BD01F0004545F0FE4141F47001F0
:104300004FF0000030BD7FEA645C1ABF19461046CA
:104310007FEA655C1CBF0B46024650EA013406BFCB
:1043200052EA033591EA030F41F4002130BD00BF8A
:1043300090F0000F04BF0021704730B54FF4806447
:1043400004F132044FF000054FF0000150E700BFC8
:1043500090F0000F04BF0021704730B54FF4806427
:1043600004F1320410F0004548BF40424FF0000114
:104370003EE700BF42004FEAE2014FEA31014FEA57
:1043800002701FBF12F07F4393F07F4F81F06051A6
:10439000704792F0000F14BF93F07F4F704730B515
:1043A0004FF4607401F0004521F0004120E700BFA8
:1043B00050EA010208BF704730B54FF000050AE02F
:1043C00050EA010208BF704730B511F0004502D530
:1043D000404261EB41014FF4806404F132045FEA32
:1043E000915C3FF4DCAE4FF003025FEADC0C18BFD7
:1043F00003325FEADC0C18BF033202EBDC02C2F1CD
:10440000200300FA03FC20FA02F001FA03FE40EA5E
:104410000E0021FA02F11444C1E600BF03685A00FD
:104420004CBF43F0004323F000431844704700BFE3
:104430002DE9F04F064683B0914621B30139019131
:104440008846002707EB080404EBD4746410E500E9
:1044500006EB050B5846FFF7E1FF019B8246A3429E
:1044600005F10800304419D0FFF7D8FFCA4500F124
:10447000FF3004D9BC420BD004F1FF38E2E74845D5
:1044800002D2671CDEE78B46584603B0BDE8F08FCA
:104490004FF0000B584603B0BDE8F08FCA45E9D88D
:1044A000F2E700BF012807D0022807D0044B0028FC
:1044B0000CBF1846002070470248704702487047FA
:1044C000D54B0008DD4B0008E54B000830B5274B05
:1044D00083B004468D1E002B42D0284601A9AFF3BD
:1044E0000080034623B32A460199FFF7A1FF054642
:1044F00018B3FFF793FF6B68A064012B12D0002B59
:1045000005F1040028DBFFF789FF0023E064236541
:104510000368002B16DBFFF781FF0023206118469C
:1045200003B030BD002323610523184603B030BD1E
:1045300023610923184603B030BD092320611846C2
:1045400003B030BDC3F30360FFF7ACFF0028206168
:1045500014BF00230923E2E70123E0642365D7E7C2
:10456000034B04481B1ADB100193BCE7000000005A
:104570001C3901082C3501080368DA0710B5044618
:1045800006D49B0700F1480009D500F069FC2368B8
:10459000590709D51A070ED5DB0613D510BD00F053
:1045A00057FC23685907F5D404F1D00000F060FCF3
:1045B00023681A07F0D404F5A87000F061FC2368A2
:1045C000DB06EBD404F5E870BDE8104000F09CBCBD
:1045D00003680BB1184470471846704709207047AC
:1045E000704700BF70B504460D4608E02B6C636150
:1045F0000120236921462A469847082808D12046E9
:10460000296CFFF763FF06460028EFD0FEF76EFD2A
:104610000728FBD13046296CFFF7E2FF281D00F088
:104620000BFC00BF2DE9F0470C1D054617460FCCCB
:10463000ADF5727D03AE0FC60FCC0FC60FCC0FC603
:1046400094E80F0002AC4FF0000ED5F80C80D5F8BE
:10465000189086E80F002846216CC4F800E0FFF7A8
:1046600035FF002F064614BF0A27092786B1A06B25
:104670002A468DE8100247F0100160642B460120A5
:10468000C04700282FD130460DF5727DBDE8F08778
:10469000236C6B6121464FF4F0727AA801F068F93F
:1046A0002B6929467AAA38469847889B82468DE826
:1046B00010023946636401202A462B46C04790B950
:1046C00020467AA94FF4F07201F052F9BAF1080FBE
:1046D00006D12846216CFFF7F9FE09270646C5E7F3
:1046E000BAF1070F04D009200DF5727DBDE8F087FF
:1046F0003046216CFFF774FF03A800F09DFB00BF5C
:10470000406C7047F0B5CB6B0B640E1D0F46044632
:104710000FCEF9B001AD0FC50FCE0FC50FCE0FC52F
:1047200096E80F004FF0FF3685E80F00009606E090
:10473000236921466A4698470828054608D120463D
:104740001099FFF7C3FE0028F2D0092079B0F0BD20
:104750006846FFF711FF062DF7D120463946FFF7CF
:1047600041FF00BF30B4DD6BC160826119461D643A
:10477000002230BCFFF756BF70B5C66843690B64B2
:1047800004460D4626B10122FFF74CFFFEF7AEFCB2
:104790000369214602202A469847072807D008289F
:1047A00003D120462946FFF71DFFFEF79FFC304648
:1047B000296CFFF715FF281D00F03EFBC26822B1EF
:1047C000CA6B0A640022FFF72DBF9BE7704700BF4A
:1047D00008B5836813B101460120984708BD00BFA2
:1047E00010B4042909D8DFE801F007030803030027
:1047F00001205DF8044B70471BB102205DF8044BAB
:1048000070470F2AF9D800EB820218465368019AC4
:104810001360EEE700B585B00A4603AB00210093B4
:104820000B46FFF7DDFF039805B05DF804FB00BF02
:1048300010B4042909D8DFE801F0070308030300D6
:1048400001205DF8044B70471BB102205DF8044B5A
:1048500070470F2AF9D800EB820201980168516075
:104860001846EEE710B584B004AB0C4643F8042DAF
:104870000021009322460B46FFF7DAFF04B010BD7B
:10488000F0B5D36B1364151D07460E460FCDADF57D
:104890000F7D17AC0FC40FCD0FC40FCD0FC495E81B
:1048A0000F004FF0FF3584E80F00169510E016A8B2
:1048B000FFF7D8FF314616A8B847694616AA78B957
:1048C000049B08209847052804460AD0092807D0E9
:1048D00026996846FFF7FAFD6A460C210028E6D0C3
:1048E000092416A8FFF748FE20460DF50F7DF0BD00
:1048F0002DE9F04F0C46C96C8BB01D460E1D0B68A0
:1049000007939046089600F00309002D40F0898037
:104910001B02032207938DF825508DF82420236D68
:10492000B9F1020F08BFA66B13F0010342D100F0EA
:104930000800C0B2039002933768002F3CD0022DCC
:104940006BD03788B6F802A00436A36C2AF0010BAE
:1049500040460F219B44FFF75DFF834536D827F083
:1049600001039B440AF0010A07F00107584547EA92
:104970004A072CBF00200120012F31D060D3022F25
:1049800020D1336823F000410191B9F1000F40F0CC
:10499000858030B1039A002A00F08D80002900F054
:1049A000B080002BC0F28580019B03F1010A06EB69
:1049B0008A06C1E700210291022D49DDFFF70EFEB4
:1049C00000284BD009200BB0BDE8F08F0AF0010A97
:1049D00007F0010747EA4A07012F4FF00000CDD149
:1049E000B9F1000F41D1B0B196E80C00D70F9A1C75
:1049F000E8D004F158010133069100F0AD80301D7C
:104A0000FFF7E6FD3A46014606AB204605F07AFB85
:104A1000002840F0CF8008368EE7D6F804A008368C
:104A200093E7022D3FF77BAF1A0CD7B21B0402218C
:104A30008DF8252006EB870607938DF824106EE786
:104A4000B9F1000F02D0002840F09080043673E7DF
:104A5000404607A900F0F0FA0028B3D1029A002AD4
:104A600059D108200BB0BDE8F08F40460D21276AD0
:104A7000FFF7D0FE8742CED1A36A9E42CBD130460B
:104A8000FFF7CCFC0F2102464046FFF7EBFE404605
:104A900022460021FFF7E6FE072094E740460D215D
:104AA000276AFFF7B7FE874245D03368002BBFF671
:104AB0007BAF043678E7019919B304F1580CCDF8AF
:104AC00010900595371DDDF80CB0DDF804906546B3
:104AD00002E0CA4515D0D34638460695FFF778FD63
:104AE0000022014606AB204605F00CFB0BF1010A43
:104AF00004370028EDD0019BDDF81090059D5B4543
:104B0000D3D140460D21FFF785FE069B2062A662A9
:104B10006362062057E70F214046FFF77BFE0E2118
:104B200002464046FFF79EFE40460F21284AFFF707
:104B300099FE072047E7A36A9E42B6D104220027C8
:104B4000B3180199A162E762226363633368BB42D1
:104B50001FDB0122029227E740460D21FFF75AFE94
:104B60002062069B6362A66206202CE73046FFF7B0
:104B700055FC04360546A663204605F019FB0028BF
:104B80003FF420AF40462A460F21FFF76BFE072077
:104B900019E7481C06EB8000FFF740FC0F21024696
:104BA0004046FFF75FFE404639462246FFF75AFE71
:104BB000072008E707460D214046FFF72BFE022F8E
:104BC0002062CED12346069A43F82C2F6362CAE7AF
:104BD00021A300080023FFF78BBE00BF0123FFF7CE
:104BE00087BE00BF0223FFF783BE00BF2DE9F0415F
:104BF0000446C4B004290BD8DFE801F059030A3099
:104C00000E00012B4FEA124596B266D0052B6BD0F1
:104C1000022044B0BDE8F081002BF9D1102AF7D86A
:104C20002368D90600F1D38022AE3046019200F00D
:104C300075F9A56B019A0023012000FA03F11142D6
:104C400003D0296846F8231004350133042BF4D12E
:104C50003046A56300F058F90020DAE7032BD7D1DE
:104C6000150C97B27B19102BD2D823681E0700F1C0
:104C7000BF8022AE304600F025F9D4F838E07F003E
:104C800006EBC5007B1E72465FB1CEEB0000AEF1B5
:104C90000402013B52F8041F81505D1CF9D10EEB58
:104CA00087023046A26300F0EBF80020B1E7002B4A
:104CB000AED1A56B96B2012000FA03F1314204D0C7
:104CC00004EB83072968796004350133102BF3D195
:104CD00012F4005075D1A5639BE77219102A97D87A
:104CE0000F2D95D8002708E07719202F90D80F2D89
:104CF00069D9374646B30F2D11D82268D0070ED593
:104D000022F00101052B2160204600F08B8022F06B
:104D1000030240F8482B019300F09EF8019B17B165
:104D2000226851076CD4012B74D00F2D04D822A80F
:104D3000019300F099F8019B37B102A8019300F0AC
:104D40009BF8019BC5F11006D4F83880002EC446AC
:104D500012DD22AA4FEA460C02EBC506C8EB060696
:104D60000CF1FF31A8F1040252F8040FB0500139E0
:104D7000481CF9D108EB8C0CB7B144AA102D2CBFFC
:104D80002846102002EBC0004FEA4708A0F5C47087
:104D900008F1FF32614651F8046B40F8046B013AA8
:104DA000561CF8D10CEB880C012B1AD00F2DC4F82F
:104DB00038C002D822A800F053F817B102A800F0BA
:104DC00057F8002025E7102F8CD9103F93E723F0E8
:104DD0001003236004F5E870019200F09FF8019A37
:104DE00022E70CF10403A36322A800F031F8E8E7FE
:104DF00023F00803236004F5A87000F063F838E797
:104E0000204622F0040240F8D02B019300F034F841
:104E1000019B88E722A8019300F01EF8019B002F58
:104E200090D191E741F0020140F8481B019300F056
:104E30001BF8019B73E700BF00F1340191E83800D3
:104E40009C46A6464CF8045D90E8FF0FE54600BD81
:104E500090EC210B704700BF80EC210B704700BF26
:104E600090EC200B704700BF80EC200B704700BF18
:104E7000D0EC200B704700BFC0EC200B704700BF88
:104E8000F0EC0201F0EC0211F0EC0221F0EC023146
:104E9000F0EC0241F0EC0251F0EC0261F0EC027136
:104EA000F0EC0281F0EC0291F0EC02A1F0EC02B126
:104EB000F0EC02C1F0EC02D1F0EC02E1F0EC02F116
:104EC000704700BFE0EC0201E0EC0211E0EC0221CF
:104ED000E0EC0231E0EC0241E0EC0251E0EC026176
:104EE000E0EC0271E0EC0281E0EC0291E0EC02A166
:104EF000E0EC02B1E0EC02C1E0EC02D1E0EC02E156
:104F0000E0EC02F1704700BFB0FC0181B0FC019100
:104F1000B0FC01A1B0FC01B1704700BFA0FC018151
:104F2000A0FC0191A0FC01A1A0FC01B1704700BF51
:104F3000EC4600B52DE900502DE9FF1F4FF00003AE
:104F40002DE90C0001A9FFF7DDFBDDF840E012B010
:104F5000704700BFEC4600B52DE900502DE9FF1F5A
:104F60004FF000032DE90C0001A9FFF705FCDDF867
:104F700040E012B0704700BFEC4600B52DE900508C
:104F80002DE9FF1F4FF000032DE90C0001A9FFF7E9
:104F900015FCDDF840E012B0704700BFEC4600B5EC
:104FA0002DE900502DE9FF1F4FF000032DE90C0003
:104FB00001ABFFF7D7FBDDF840E012B0704700BF50
:104FC000EC4600B52DE900502DE9FF1F4FF000031E
:104FD0002DE90C0001AAFFF753FCDDF840E012B008
:104FE000704700BF037A1BB9437A43B9B0207047BA
:104FF0000268013B037213020360100E704742689F
:10500000013B4372111D12684160032303721302B6
:105010000360100E704700BF00B585B003AB0021E0
:1050200000930C220B46FFF7DBFB039805B05DF8FD
:1050300004FB00BFFFF7F0BF2DE9F043064685B043
:105040000D464FF000082846FFF7CCFFB028044675
:1050500000F0AC8020F07F0212F0FF0120D000F0C1
:10506000F002802A73D0902A36D0A02A42D0B02AEB
:1050700056D0C02A00F0828000F0F803D02B0BD16C
:1050800000F00704621C42F400223046012105238F
:10509000FFF7ACFD0028D6D0092005B0BDE8F083AD
:1050A00003AF4FEA80090B46009730460D22FFF709
:1050B00097FB5FFA89F9039B09F1040960064CBF6D
:1050C000C9EB03034B440393002100970B46304682
:1050D0000D22FFF7ADFBB6E700F00D030D2BDBD083
:1050E00003AF002100F00F0200970B463046FFF798
:1050F00077FBE9E7C2434FF47F6302F0070243FA0C
:1051000002F2010702EA03024FF0000148BF42F435
:1051100080420B463046FFF769FD0028BCD192E77C
:10512000B12848D0B22851D0B3287CD000F0FC037D
:10513000B42BB1D000F007020132012142F4002269
:105140000B463046FFF752FD0028A5D17BE72846E5
:10515000FFF748FF24022043B0F5004F9CD0040124
:105160000021A2B20B463046FFF740FD002893D144
:1051700014F4004F18BF4FF0010864E7C6285ED052
:10518000C72868D000F0F803C02B77D0C82800F0FB
:105190008D80C92880D12846FFF724FF00F00F0337
:1051A000013300F0F00243EA02326EE7B8F1000F7B
:1051B0006BD0002071E72846FFF714FF0246002855
:1051C0003FF46AAF10F0F001BAD065E7002103AFF9
:1051D0000D220B4600973046FFF702FB2846FFF7EB
:1051E00001FF02064FF002040CD5039B00F07F0084
:1051F000A040034428460393FFF7F4FE030604F19E
:105200000704F2D4039B009700F07F0000FA04F437
:1052100003F5017300211C4430460B460D22039414
:10522000FFF706FB0FE72846FFF7DCFE00F00F0351
:10523000013300F0F002012143EA023280E7284600
:10524000FFF7D0FE00F00F03013300F0F00203215E
:1052500043EA023274E72846FFF7C4FE02460028FC
:105260003FF41AAF10F0F0037FF416AF304604217C
:10527000FFF7BCFC00287FF40FAFE4E600F00F025C
:105280000132032142F420225AE703AC41460E22A8
:10529000434600943046FFF7A3FA00943046414657
:1052A0000F224346FFF7C4FA4046F6E62846FFF7CA
:1052B00099FE00F0F00200F00F031032013343EAD0
:1052C0000232E2E600B5C36C85B05A6803208DF85F
:1052D0000C00084611020191DA798DF80D2008338F
:1052E00001A90293FFF7A8FE05B05DF804FB00BF1B
:1052F00008B5FFF79FFE806C08BD00BF08B5FFF73B
:1053000099FEC36CDA7903EB8200083008BD00BF58
:1053100008B5FDF7EBFE00BF08B5FDF7E7FE00BFDF
:1053200003460846194600F001B800BF10B40C4609
:1053300013460146224602205DF8044B01F0E0BE10
:1053400008B50021044601F039FF044B1868C36B0F
:1053500003B1984720460AF0BBFE00BF5C1D010860
:1053600070B50F4E0F4D761BB61007D0043D0024CC
:10537000013455F8043F9847A642F9D10A4E0B4D27
:10538000761B0CF06BFAB61008D0043D00240134F3
:1053900055F8043F9847A642F9D170BD70BD00BFD3
:1053A000A4080020A4080020B0080020A4080020C1
:1053B000024B0146186800F00BB800BF50040020F3
:1053C000024B0146186802F0A1BF00BF5004002044
:1053D0002DE9F04F01F10B05162D83B0064627D9B4
:1053E00035F0070527D4A94225D8304600F0A4FBA4
:1053F000B5F5FC7F26D2C14F4FEAD50C07EBCC03A5
:10540000DC689C4200F0D2816368E268A16823F006
:105410000303234430465D68CA6045F0010591608E
:105420005D6000F08BFB0834204603B0BDE8F08FD0
:105430001025A942D9D900240C232046336003B09B
:10544000BDE8F08F5FEA552C00F08A80BCF1040FB4
:1054500000F260814FEA951C0CF1380C4FEA4C01C8
:10546000A64F07EB8101CC68A14205D10CE0002BCF
:105470007ADAE468A14207D0626822F00302531B83
:105480000F2BF4DD0CF1FF3C0CF1010C9B4B3C6944
:1054900003F1080E744500F07E81616821F003017C
:1054A0004A1B0F2A00F36481002AC3F814E0C3F8F2
:1054B00010E06ADAB1F5007F80F03A81C90803EBA9
:1054C000C1004FEAA1085A688168A1604FF0010944
:1054D00009FA08F848EA0202E0605A608460CC6089
:1054E0004FEAAC030120984090425BD8024206D1BB
:1054F0002CF0030C400002420CF1040CFAD007EB34
:10550000CC084446E146E3689C4207D145E1002AC5
:1055100080F25681DB689C4200F03F81596821F09F
:1055200003014A1B0F2AF2DD1C46D3F80CC054F8C5
:10553000088F591945F0010942F00105C3F804909C
:105540003046C8F80CC0CCF8088079613961C1F8E0
:105550000CE0C1F808E04D608A5000F0EFFA63E714
:105560007E214FF03F0C7BE72244E3685068A1683E
:1055700040F00105CB6030469960556000F0DEFADE
:105580000834204603B0BDE8F08F214430464B6814
:1055900043F001034B6000F0D1FA0834204603B019
:1055A000BDE8F08FBC68636823F00309A94504D304
:1055B000C5EB09030F2B00F39180514B514A196839
:1055C0001368013305EB010A04EB090B00F061815C
:1055D0000AF5805A0AF10F0A2AF47F6A2AF00F0AA4
:1055E00030465146019200F0ABFAB0F1FF3F8046E1
:1055F000019A00F00081834500F2FA80DFF810C1C3
:10560000DCF80030C3455344CCF8003000F04A8148
:1056100012683C4901321BBFCBEB080B5B44C1F85D
:105620000080CCF8003018F0070300F01381C3F1BC
:105630000802C3F5805390440833C244CAF30B0AEE
:10564000CAEB030A51463046CDF804C000F078FAA0
:10565000431CDDF804C000F03581C8EB0002524461
:1056600042F00102DCF80030C7F808805344BC4225
:10567000C8F80420CCF80030DFF894A015D0B9F1B8
:105680000F0F40F2EA806168A9F10C0222F00702D4
:1056900001F0010EA118052042EA0E0E0F2AC4F8EF
:1056A00004E04860886000F21181174ABC68116804
:1056B0008B4288BF1360154A11688B4288BF136004
:1056C000626822F003029542C5EB020301D80F2B5A
:1056D00004DC304600F032FA0024A5E6621943F0FB
:1056E000010345F0010565603046BA60536000F083
:1056F00025FA0834204603B0BDE8F08F540400209A
:10570000800B0020600800207C0B0020780B00201C
:10571000840B0020BCF1140F61D9BCF1540F00F2CE
:105720008F804FEA153C0CF16E0C4FEA4C0197E666
:105730004B0A042B58D9142B00F2AE8003F15B0204
:10574000500007EB8000DFF8BC818368834200F0E3
:105750008A805A6822F00302914202D29B689842E2
:10576000F7D1D9687A68E160A3608C60DC60B7E645
:10577000611942F0010745F0010565603046596145
:105780001961C1F80CE0C1F808E04F608A50083494
:1057900000F0D4F948E65A68A2E609F1010919F0C7
:1057A000030F04F108047FF4AEAE2DE004F108030A
:1057B0006469A34208BF0CF1020C3FF467AE23E614
:1057C00019441C464868DB6854F8082F40F001056E
:1057D0004D603046D3609A6000F0B0F924E60CF1D9
:1057E0005B0C4FEA4C013BE68A0938325000A8E7CF
:1057F000BC423FF403AFBC68626822F0030262E778
:10580000D8F8008098457BD11CF0030FA8F108035D
:105810000CF1FF3CF4D17B6823EA00037B6040007D
:1058200098423FF6BFAE00283FF4BCAE0342CC46E0
:105830007FF465AE400003420CF1040CFAD05EE642
:10584000BCF5AA7F1AD84FEAD53C0CF1770C4FEA89
:105850004C0105E64FF48053EFE60123C8F804300D
:10586000444600222FE791100120D8F8042000FAC6
:1058700001F10A43C8F80420194674E740F2545372
:105880009C451BD84FEA954C0CF17C0C4FEA4C011F
:10589000E6E50AF1100AA3E6542B1FD80A0B6E3274
:1058A00050004EE7CBF30B0100297FF4B1AE0AEBB9
:1058B0000901BA6841F001015160F6E6FC214FF0A0
:1058C0007E0CCDE501224FF0000ACBE604F1080181
:1058D000304602F01BFDDAF80030E6E6B3F5AA7FA9
:1058E00003D8CA0B773250002BE740F25452934250
:1058F00003D88A0C7C32500023E7FC207E2220E76C
:105900007B688CE754040020032A70B428D940EA4D
:1059100001039B0713D005780C78A54224D1013AE6
:10592000002305E010F8015F11F8014FA5421BD1DB
:10593000934203F10103F5D1002070BC70470C467F
:10594000034625681E68AE422146184604F1040449
:1059500003F1040304D1043A032A18462146F0D87F
:10596000002AD8D11046E8E7281B70BC704700BF5A
:10597000844641EA000313F003036DD1403A41D35A
:1059800051F8043B40F8043B51F8043B40F8043B19
:1059900051F8043B40F8043B51F8043B40F8043B09
:1059A00051F8043B40F8043B51F8043B40F8043BF9
:1059B00051F8043B40F8043B51F8043B40F8043BE9
:1059C00051F8043B40F8043B51F8043B40F8043BD9
:1059D00051F8043B40F8043B51F8043B40F8043BC9
:1059E00051F8043B40F8043B51F8043B40F8043BB9
:1059F00051F8043B40F8043B51F8043B40F8043BA9
:105A0000403ABDD2303211D351F8043B40F8043B48
:105A100051F8043B40F8043B51F8043B40F8043B88
:105A200051F8043B40F8043B103AEDD20C3205D358
:105A300051F8043B40F8043B043AF9D2043208D050
:105A4000D2071CBF11F8013B00F8013B01D30B88C2
:105A500003806046704700BF082A13D38B078DD0A0
:105A600010F003038AD0C3F10403D21ADB071CBF72
:105A700011F8013B00F8013B80D331F8023B20F8DC
:105A8000023B7BE7043AD9D3013A11F8013B00F815
:105A9000013BF9D20B7803704B7843708B7883709D
:105AA00060467047F0B4840743D0541E002A3ED0AD
:105AB000CDB2034603E0621E002C38D0144603F832
:105AC000015B9A07F7D1032C2AD9CDB245EA052507
:105AD0000F2C45EA054515D9A4F110073F0903F13C
