:020000040800F2
:10000000C81B002085100008F5100008F510000836
:10001000F5100008F5100008F510000800000000B9
:10002000000000000000000000000000453A000849
:10003000F510000800000000DD3B0008353C00081A
:10004000F5100008F5100008F5100008F51000087C
:10005000F5100008F5100008F5100008F51000086C
:10006000F5100008F5100008F5100008F51000085C
:10007000F5100008F5100008F5100008F51000084C
:10008000F5100008F5100008F5100008F51000083C
:10009000F5100008F5100008F5100008F51000082C
:1000A000F5100008F5100008F5100008F51000081C
:1000B000F5100008F5100008F5100008F51000080C
:1000C000F5100008F5100008F5100008F5100008FC
:1000D000F5100008F5100008F5100008F5100008EC
:1000E000F5100008F5100008F5100008F5100008DC
:1000F000F5100008F5100008F5100008F5100008CC
:10010000F5100008F5100008F5100008F5100008BB
:10011000F5100008F5100008F5100008F5100008AB
:10012000F5100008F5100008F5100008F51000089B
:10013000F5100008F5100008F5100008F51000088B
:10014000F5100008F5100008F5100008F51000087B
:10015000F5100008F5100008F5100008F51000086B
:10016000F5100008F5100008F5100008F51000085B
:10017000F5100008F5100008F5100008F51000084B
:10018000F5100008F510000810B5054C237833B9B8
:10019000044B13B10448AFF300800123237010BD5A
:1001A00080080020000000007C7D000808B5064B98
:1001B0001BB106480649AFF300800648036813B137
:1001C000054B03B1984708BD000000007C7D000886
:1001D000840800207C08002000000000154B002B44
:1001E00008BF134B9D46A3F5803A00218B460F466E
:1001F0001348144A121A05F055FA0F4B002B00D081
:1002000098470E4B002B00D0984700200021040097
:100210000D000D48002802D00C4805F079FB04F0D1
:100220009FFE2000290001F0FBF904F089FE00BFC9
:100230000000080000000220000000000000000094
:1002400080080020C8130020115900081D5900081B
:1002500080B483B000AF786039603B681A687B680F
:100260001A607B6818460C37BD465DF8047B704702
:1002700080B483B000AF78607B6818460C37BD4609
:100280005DF8047B704700BF80B582B000AF786036
:100290007B681B68184600214FF0FF32002303F0F3
:1002A00015F90837BD4680BD80B582B000AF7860D3
:1002B0007B681B68184600210022002302F0DCFF47
:1002C0000346002B0CBF00230123DBB2184608377E
:1002D000BD4680BD80B582B000AF786039603868B7
:1002E00000F008F802467B681A607B6818460837F9
:1002F000BD4680BD80B483B000AF78607B681B686A
:1003000018460C37BD465DF8047B704780B582B057
:1003100000AF78607B681B68184603F0B5F97B680E
:1003200018460837BD4680BD80B582B000AF786002
:100330007B68094A1A607B681B69184601F00AFF4E
:100340000023002B02D0786801F046FE7B68184637
:100350000837BD4680BD00BFC872000880B582B0B6
:1003600000AF78607868FFF7DFFF786801F034FE4F
:100370007B6818460837BD4680BD00BF80B582B097
:1003800000AF78607B681846FFF7C0FF7B681846AF
:100390000837BD4680BD00BF90B585B000AF78601E
:1003A0007B685B68083307F1080210461946FFF7BF
:1003B0004FFF07F108031846FFF766FF0023FB73A2
:1003C0000BE07B685A68FB7B1344FA7B79680A442C
:1003D00012781A70FB7B0133FB73FB7B9CB27B684A
:1003E0001B681B687868984703469C422CBF002313
:1003F0000123DBB2002BE4D107F108031846FFF715
:1004000053FF7B685B6803F1080207F1080310469D
:100410001946FFF75FFF07F108031846FFF728FFAB
:1004200006E007F108031846FFF722FF06F060FB1D
:100430001437BD4690BD00BF80B584B000AF786072
:100440007B681B681B68786898470346BB817B689C
:100450005B6808331846FFF717FF0023FB730BE0B8
:10046000FB7B7A6813447A685168FA7B0A441278F5
:100470001A70FB7B0133FB73FB7B9BB2BA899A42F8
:10048000EED87B685B6808331846FFF70DFF10371E
:10049000BD4680BD80B582B000AF78607B68064AFB
:1004A0001A637B6824331846FFF7C6FF4FF4967033
:1004B00001F0A6FEF2E700BF0000204180B582B047
:1004C00000AF78607B680B4A1A607B68203318465F
:1004D000FFF754FF7B681846FFF726FF0023002B29
:1004E00002D0786801F078FD7B6818460837BD4671
:1004F00080BD00BFB072000880B582B000AF7860E8
:100500007868FFF7DBFF786801F066FD7B681846C6
:100510000837BD4680BD00BF80B582B000AF7860AF
:100520007B68064A1A607B6808331846FFF7A0FE0E
:100530007B6818460837BD4680BD00BF987200082A
:1005400080B582B000AF78607B68054A1A607B682E
:100550001846FFF7E1FF7B6818460837BD4680BDA7
:100560008072000880B582B000AF78607B68054A71
:100570001A607B681846FFF7E3FF7B681846083768
:10058000BD4680BD6872000880B582B000AF78605B
:100590007B680B4A1A607B6824331846FFF7E2FF3A
:1005A0007B681846FFF78AFF0023002B02D078688B
:1005B00001F012FD7B6818460837BD4680BD00BFBC
:1005C0003872000880B582B000AF78607868FFF7B5
:1005D000DBFF786801F000FD7B6818460837BD46F0
:1005E00080BD00BF80B483B000AF7860242318467C
:1005F0000C37BD465DF8047B704700BF80B582B004
:1006000000AF786039607B68094A1A603B685A68B5
:100610007B685A607B6803F108023B680833104628
:100620001946FFF715FE7B6818460837BD4680BDA2
:100630009872000880B582B000AF786039607A683F
:100640003B6810461946FFF7D9FF7B68034A1A60DA
:100650007B6818460837BD4680BD00BF8072000821
:1006600080B582B000AF786039607A683B68104628
:100670001946FFF7DFFF7B680F4A1A603B68DA68AC
:100680007B68DA603B681A697B681A613B685A6963
:100690007B685A613B689A697B689A613B68DA6952
:1006A0007B68DA613B681A6A7B681A627B68184665
:1006B0000837BD4680BD00BF6872000880B584B0B1
:1006C00000AFF860B9607A60BB685A687B685A60AE
:1006D000F8687968FFF7C4FFF8681037BD4680BD39
:1006E00080B582B000AF7860012002F07DFD024647
:1006F0007B681A607B681B68002B00D1FEE77B6873
:1007000018460837BD4680BD80B582B000AF78601E
:1007100039607B681B68184639680122002302F0A3
:10072000D5FE0346002B0CBF00230123DBB2184685
:100730000837BD4680BD00BF80B485B000AFF8600B
:10074000B9607A60012318461437BD465DF8047B12
:10075000704700BF80B483B000AF78607B681846F4
:100760000C37BD465DF8047B704700BF80B582B092
:1007700000AF78607B6854331846FFF779FD7B68DB
:1007800018460837BD4680BD98B500AF134B1B68AF
:1007900003F00103002B16D1104805F0B5FD034608
:1007A000002B0CBF00230123DBB2002B0BD0002455
:1007B0000B4800F053F8094805F0C6FD0848094900
:1007C000094A04F0ADFB064B06E0002C02D10348B9
:1007D00005F0B6FD06F08CF9184698BD9C0800207F
:1007E000A00800206D0700080000002080B586B03A
:1007F00000AFF8600B467A60FB720023FB75FB6864
:1008000054331846FFF740FDFB6893F85030092B2E
:1008100019D8FB6893F850301A46FB68F97A03F848
:100820003210FB6893F85030FA68DB0013447A68A2
:100830005A60FB6893F850300133DAB2FB6883F8F2
:1008400050200123FB75FB6854331846FFF72CFD3D
:10085000FB7D18461837BD4680BD00BF80B582B00D
:1008600000AF78607B6854331846FFF739FF7B6828
:1008700018460837BD4680BD80B582B000AF7860AD
:100880000B46FB70FFF780FF01467B68FA7808464D
:1008900011461A46FFF7AAFF0837BD4680BD00BFC4
:1008A00080B582B000AF786039607B6818463968DF
:1008B000FFF72AFF034618460837BD4680BD00BF34
:1008C00080B582B000AF78607B68203318460A217B
:1008D000FFF7D2FF7B68203318460B21FFF7CCFFD0
:1008E0007B6803F114027B682833104619460C22FA
:1008F000FFF722FF0837BD4680BD00BF80B588B036
:1009000000AF78607868FFF7DBFF07F10C0318464B
:10091000FFF720FF05E007F10C037868194600F0A7
:100920001BF87B6803F1200207F10C0310461946FF
:10093000FFF7B6FF0346002BEDD17B685B6A1B68AF
:1009400008331B687A68526A104698474FF49670CD
:1009500001F056FC00BFE4E780B485B000AF7860DA
:1009600039600023FB603B681B7A0A2B09D00B2BF4
:1009700000D00DE0FB680133FB60FB680133FB60D6
:1009800006E0FB680133FB60FB680133FB6000BFDE
:1009900000BF1437BD465DF8047B704780B582B058
:1009A00000AF78607B68084A1A607B681846FFF7DA
:1009B00085FD0023002B02D0786801F00DFB7B68D9
:1009C00018460837BD4680BD8873000880B582B0E0
:1009D00000AF78607868FFF7E1FF786801F0FCFA13
:1009E0007B6818460837BD4680BD00BF80B582B021
:1009F00000AF786039607B681B6818463968002250
:100A0000002302F039FC0346002B0CBF0023012316
:100A1000DBB218460837BD4680BD00BF80B483B046
:100A200000AF7860F970BA707B707B68FA781A72E0
:100A30007B68BA785A727B687A789A727B683A7C5B
:100A4000DA727B683A7D1A737B683A7E5A737B68E8
:100A50003A7F9A737B6818460C37BD465DF8047B75
:100A6000704700BF80B584B000AF786039607B68A4
:100A700054331846FFF708FC0023FB7313E0FA7B9E
:100A80007B6813F832203B681B7A9A4208D1FB7BC3
:100A90007A68DB0013445B6818463968FFF7A6FFE5
:100AA000FB7B0133FB737B6893F85030FA7B9A42EF
:100AB000E5D37B6854331846FFF7F6FB1037BD4685
:100AC00080BD00BF84B080B582B000AF786007F110
:100AD000140080E80E007B687B610023BB61FFF798
:100AE00053FE024607F1140310461946FFF7BAFFFA
:100AF0000837BD46BDE8804004B0704780B58CB073
:100B000004AF78600B46FB7007F10C02FB78002104
:100B100000910021019100210291002103911046D2
:100B2000194600220023FFF779FF7B68FB60002352
:100B30003B61FFF729FE024607F10C0310461946F8
:100B4000FFF790FF2037BD4680BD00BF80B483B063
:100B500000AF78600C37BD465DF8047B704700BF7E
:100B600090B597B004AF78607868FFF7EFFF07F1B2
:100B70000C031846FFF7EEFD05E007F10C0378685B
:100B8000194600F06BF87B6803F1200207F10C03B3
:100B900010461946FFF784FE0346002BEDD17B6813
:100BA0002B4A1A637B6824331846FFF745FC7B68A1
:100BB000203318460A21FFF7A1FF7B6803F12004C8
:100BC00007F12003002200920022019200220292EB
:100BD0000022039218460B2100220023FFF71EFF7C
:100BE0006B4607F12C0292E8030083E8030007F14B
:100BF00020030ECB2046FFF765FF7B6803F120043E
:100C000007F1340300220092002201920022029296
:100C1000002203921846042100220023FFF7FEFE63
:100C20006B4607F1400292E8030083E8030007F1F6
:100C300034030ECB2046FFF745FF06489FED060A1A
:100C400000F044F84FF4967001F0DAFA00BF9AE72A
:100C500000002041F80800206666663F80B485B039
:100C600000AF786039600023FB603B681B7A052B7E
:100C700000D006E0FB680133FB60FB680133FB60DA
:100C800000BF1437BD465DF8047B704780B584B063
:100C900000AFF86087ED020A7960FB6804331846FC
:100CA000FFF71EFDFB687A689A60FB68BA681A60F5
:100CB000054B1B8801339AB2034B1A80FB68184618
:100CC0001037BD4680BD00BFC809002080B582B086
:100CD00000AF786087ED000A7B6804331846FFF7A1
:100CE000D3FA7B683A681A607B6804331846FFF7CA
:100CF000DBFA0837BD4680BD80B582B000AF7860B2
:100D00007B680B4A1A607B6824331846FFF72AFC7D
:100D10007B681846FFF7D2FB0023002B02D07868CF
:100D200001F05AF97B6818460837BD4680BD00BF00
:100D3000C073000880B582B000AF78607868FFF7B4
:100D4000DBFF786801F048F97B6818460837BD4634
:100D500080BD00BF80B582B000AF78607B6804338F
:100D60001846FFF785FA7B6818460837BD4680BDF0
:100D700080B582B000AF786039607B68012B40F0AD
:100D8000C1803A684FF6FF739A4240F0BB805F48DB
:100D90009FED5F0A5F49FFF779FF5C485E495F4A54
:100DA00004F0BEF85E489FED5F0A5F49FFF76EFFF3
:100DB0005B485949594A04F0B3F85C489FED5C0A16
:100DC0005C49FFF763FF59485349544A04F0A8F8B7
:100DD00059489FED5A0A5A49FFF758FF56484E495D
:100DE0004E4A04F09DF857489FED510A5649FFF7C7
:100DF0004DFF54484849494A04F092F853489FED42
:100E0000540A5449FFF742FF50484349434A04F00B
:100E100087F85148B1EE000A5049FFF737FF4E48B6
:100E20003D493E4A04F07CF84D48B8EE000A4D4971
:100E3000FFF72CFF4A483849384A04F071F84A480D
:100E40009FED3B0A4949FFF721FF47483249334AA2
:100E500004F066F84648B0EE080A4649FFF716FF68
:100E600043482D492D4A04F05BF84348BFEE000A81
:100E70004249FFF70BFF40482749284A04F050F841
:100E80003F489FED2B0A3F49FFF700FF3C482249AE
:100E9000224A04F045F83C489FED3C0A3C49FFF7E4
:100EA000F5FE39481C491D4A04F03AF83948B3EEBA
:100EB000040A3949FFF7EAFE36481749174A04F091
:100EC0002FF83648B7EE080A3549FFF7DFFE3348FA
:100ED0001149124A04F024F832489FED150A3249AC
:100EE000FFF7D4FE2F480C490C4A04F019F82F489C
:100EF0009FED0F0A2E49FFF7C9FE2C480649074A05
:100F000004F00EF80837BD4680BD00BFF808002089
:100F10006666D640E8730008550D00080000002002
:100F200004090020CDCC4C3EF873000810090020C5
:100F300000000000087400081C090020CDCC4C3FC4
:100F400018740008280900202874000834090020BB
:100F50000AD7A33B387400084009002048740008F1
:100F60004C090020587400085809002068740008D3
:100F70006409002078740008700900208874000853
:100F80007C0900209874000888090020000048436C
:100F9000A874000894090020B8740008A009002073
:100FA000C8740008AC090020D8740008B8090020F3
:100FB000E874000880B500AF01204FF6FF71FFF71D
:100FC000D7FE80BD80B582B000AF78607B68064AEE
:100FD0001A637B6824331846FFF7DEF94FF49670E6
:100FE00001F00EF9F2E700BF0000C84280B582B000
:100FF00000AF78607B680B4A1A607B682433184620
:10100000FFF7B0FA7B681846FFF758FA0023002B69
:1010100002D0786800F0E0FF7B6818460837BD46CC
:1010200080BD00BF0075000880B582B000AF786059
:101030007868FFF7DBFF786800F0CEFF7B68184622
:101040000837BD4680BD00BF80B400AFFEE700BFDB
:1010500080B483B000AF78600C37BD465DF8047B88
:10106000704700BF80B483B000AF7860024B1B684C
:101070005A1C014B1A60F9E7C409002080B400AF84
:10108000FEE700BF80B582B000AF144B7B60144B0D
:101090003B6007E03B681A1D3A607A68111D796071
:1010A00012681A603A680F4B9A42F3D30E480F4900
:1010B0004FF000028842B8BF40F8042BFFF6FAAFA9
:1010C000DFF82C00016841F47001016001F020FF9D
:1010D000FFF784F80837BD4680BD00BF5C8100087B
:1010E000000000208008002080080020C813002095
:1010F00088ED00E080B400AFFEE700BF80B582B0AD
:1011000000AF786013460A467A803B807A883B8835
:1011100010461946002202F025F802467B681A6044
:101120007B681B68002B00D1FEE77B6818460837F8
:10113000BD4680BD80B588B004AFF860B9607A6004
:10114000FB70FB68124A1A60FB68BA685A60FB6859
:101150007A689A60FB68FA781A73FB685A68FB68C9
:101160009B689BB2F968097B0846F96810310090CA
:1011700001910021029100210391064811461A466F
:10118000FB6800F033FFFB6818461037BD4680BD92
:10119000C87200089911000880B582B000AF78606D
:1011A0007B681B6808331B68786898470837BD461A
:1011B00080BD00BF80B500AF01F054F880BD00BF16
:1011C00080B485B000AFF860B9607A60FB68BA6837
:1011D0009A600F4B1A68FB681A600D4B1A687B689F
:1011E0001A440B4B1A60FB687A685A60094B1B78EB
:1011F0005A1CD1B2074A11701A46074BF96843F8D6
:101200002210FB6818461437BD465DF8047B704712
:1012100004000020F4090020CC09002080B582B031
:1012200000AF78607B6818460A211422FFF766FF3A
:101230007B6818460837BD4680BD00BF80B584B0C6
:1012400000AFF860B9607A60FB70FA68FB7810460E
:10125000B9687A68FFF76EFFFB680D4A1A60FB6891
:1012600014331846B968BA69FFF7AAFFFB68203340
:101270001846FFF7D3FFFB6805E0FB681846FFF749
:1012800053F805F035FC18461037BD4680BD00BF49
:10129000B072000880B582B000AF78607B68064A03
:1012A0001A600023002B02D0786800F095FE7B685E
:1012B00018460837BD4680BDE875000880B582B085
:1012C00000AF78607868FFF7E5FF786800F084FE8B
:1012D0007B6818460837BD4680BD00BF80B483B028
:1012E00000AF78607B68044A1A607B6818460C3748
:1012F000BD465DF8047B7047E875000880B582B094
:1013000000AF78607B681846FFF7E8FF7B68034A08
:101310001A607B6818460837BD4680BDC075000856
:1013200080B582B000AF78607B68084A1A607B683D
:101330001846FFF7AFFF0023002B02D0786800F0BB
:101340004BFE7B6818460837BD4680BDC075000857
:1013500080B582B000AF78607868FFF7E1FF786809
:1013600000F03AFE7B6818460837BD4680BD00BFD6
:1013700080B582B000AF78607B681846FFF7BEFF8B
:101380007B68034A1A607B6818460837BD4680BDF3
:101390009875000880B483B000AF786001231846C8
:1013A0000C37BD465DF8047B704700BF80B483B046
:1013B00000AF7860002318460C37BD465DF8047B0B
:1013C000704700BF80B485B000AFF860B9607A6044
:1013D0003B6000231BB218461437BD465DF8047B02
:1013E000704700BF80B483B000AF78600C37BD4653
:1013F0005DF8047B704700BF80B483B000AF7860B5
:1014000039600C37BD465DF8047B704780B483B00B
:1014100000AF786039600C37BD465DF8047B7047DB
:1014200080B582B000AF78607B68184600F018FA8B
:101430007B68034A1A607B6818460837BD4680BD42
:101440006872000890B587B002AFF860B9607A6042
:10145000FB70F868B9687A68FB783C6A0094FFF71B
:10146000EDFEFB680E4A1A60FB6824331846FFF74E
:10147000D7FFFB684833184602F004FDFB680BE019
:10148000FB6824331846FFF76DF8FFE7FB68184642
:10149000FFF714F805F02CFB18461437BD4690BD35
:1014A000C073000890B587B002AFF860B9607A6089
:1014B000FB70F868B9687A68FB783C6A0094FFF7BB
:1014C000BDFEFB68094A1A60FB6824331846FFF723
:1014D000A7FFFB6805E0FB681846FEF7EFFF05F085
:1014E00007FB18461437BD4690BD00BF00750008C5
:1014F00090B587B002AFF860B9607A60FB70F868A9
:10150000B9687A68FB783C6A0094FFF797FEFB683D
:10151000094A1A60FB6824331846FFF781FFFB680D
:1015200005E0FB681846FEF7C9FF05F0E1FA18462A
:101530001437BD4690BD00BF3872000890B587B023
:1015400002AFF860B9607A60FB70F868B9687A68D1
:10155000FB783C6A0094FFF771FEFB68034A1A604F
:10156000FB6818461437BD4690BD00BF887300085D
:1015700090B587B002AFF860B9607A60FB70F86828
:10158000B9687A68FB783C6A0094FFF757FEFB68FD
:10159000094A1A60FB6824331846FFF741FFFB68CD
:1015A00005E0FB681846FEF789FF05F0A1FA18462A
:1015B0001437BD4690BD00BF6076000890B587B077
:1015C00002AFF860B9607A60FB70F868B9687A6851
:1015D000FB783C6A0094FFF731FEFB68034A1A600F
:1015E000FB6818461437BD4690BD00BFE87600087A
:1015F00080B584B000AFF8603B1D83E80600FB684F
:1016000018463B1D93E8060000F06AF9FB68034AA0
:101610001A60FB6818461037BD4680BD6872000826
:1016200080B5ADF5CE5D02AF07F5CC73143B4FF43A
:101630007A7200921846794940F214520123FFF75A
:1016400001FF07F1B803143B4FF47A720092184679
:10165000734982220123FFF725FF07F1F8030C3BB2
:101660004FF47A72009218466E4982220123FFF7E6
:101670003FFF07F17803083B4FF47A720092184657
:10168000694982220123FFF759FF07F59C734FF444
:101690007A7200921846654982220123FFF768FF9B
:1016A00007F15803103B4FF47A72009218466049D4
:1016B00082220123FFF782FF07F5CC5303F11003C9
:1016C0001846FFF755FE07F1B803143B243307F51E
:1016D000CC5202F11C02136007F1F8030C3B2433D7
:1016E00007F5CD52136007F59C73243307F5CD52EF
:1016F00002F10402136007F5CC73143B243307F5A1
:10170000CD5202F10802136007F5CC5303F11C031C
:1017100007F5CC5202F114021360042307F5CC52F2
:1017200002F11802136007F11803183B184607F579
:10173000CC5303F1140393E80600FFF759FF07F5B4
:10174000CC73143B243307F5CD5202F1140213601D
:1017500007F5CD5303F1140307F5CD5202F10C0246
:101760001360012307F5CD5202F11002136007F157
:101770003803143B184607F5CD5303F10C0393E8E7
:101780000600FFF735FF07F17803083B07F5CC5259
:1017900002F110025A62FFF70DFDFEE707F1380370
:1017A000143B1846FEF7DEFEFFE707F11803183B6F
:1017B0001846FEF7D7FEFFE707F5CC5303F11003F9
:1017C000184600F0BDF807F15803103B184600F02A
:1017D0000DF9FFE707F59C73184600F0D9F8FFE70D
:1017E00007F17803083B1846FFF7D8F8FFE707F141
:1017F000F8030C3B1846FEF7C7FEFFE707F1B803F6
:10180000143B1846FFF7F2FBFFE707F5CC73143BD8
:101810001846FFF771FA05F06BF900BF287500084C
:101820003875000848750008587500086875000884
:101830007C75000880B582B000AF78607B68074A8D
:101840001A607B6800225A607B6808331846FEF7EE
:1018500047FF7B6818460837BD4680BD9872000870
:1018600080B582B000AF78607B681846FFF7E2FF72
:101870007B68054A1A607A687B685A607B681846FC
:101880000837BD4680BD00BF8072000880B483B0B9
:1018900000AF78607B681B6818460C37BD465DF862
:1018A000047B704780B483B000AF78607B685B686E
:1018B00018460C37BD465DF8047B704790B583B081
:1018C00000AF78607868FFF7E1FF04467868FFF7BB
:1018D000E9FF03469B00234418460C37BD4690BDE4
:1018E00080B588B000AFF8603B1D83E80600FB6858
:1018F0001846FFF79FFFFB68104A1A60FA68FB68FA
:101900005A603B1DBB61B869FFF7C0FFF861B86959
:10191000FFF7D4FF786108E0FB691B683B61FA6858
:101920003B695A60FB690433FB61FA697B699A423F
:10193000F2D1FB6818462037BD4680BD8072000892
:1019400080B582B000AF78607B68084A1A607B6817
:101950001846FFF7E5FC0023002B02D0786800F062
:101960003BFB7B6818460837BD4680BD987500086C
:1019700080B582B000AF78607868FFF7E1FF7868E3
:1019800000F02AFB7B6818460837BD4680BD00BFC3
:1019900080B582B000AF78607B680B4A1A607B68C4
:1019A00024331846FEF7DEFD7B681846FEF786FDF9
:1019B0000023002B02D0786800F00EFB7B681846ED
:1019C0000837BD4680BD00BF6076000880B582B094
:1019D00000AF78607868FFF7DBFF786800F0FCFA0A
:1019E0007B6818460837BD4680BD00BF80B582B011
:1019F00000AF78607B68084A1A607B681846FEF77B
:101A00005DFD0023002B02D0786800F0E5FA7B68CA
:101A100018460837BD4680BDE876000880B582B01C
:101A200000AF78607868FFF7E1FF786800F0D4FADB
:101A30007B6818460837BD4680BD00BF80B483B0C0
:101A400000AF78600B46FB70FB78002B06D0094B8B
:101A5000084A116C7A680A431A6406E0054B054A85
:101A6000116C7A68D2430A401A640C37BD465DF89F
:101A7000047B70470038024080B586B004AF002375
:101A80007B6000F051FA0F4B1B68002B0FD0022334
:101A900000930023019300230293002303930A4839
:101AA0000A494FF48272002300F0A0FA78607B6844
:101AB000002B02D102F084F8FEE77B681846083755
:101AC000BD4680BD280A0020CD1B000844760008D2
:101AD00080B588B000AFF860B9607A603B600023E1
:101AE000FB611D4B1B68002B30D0BB683B617B68E2
:101AF0007B61FB68BB61BB68052B1CDC01F098F8BF
:101B00000346022B0BD1144B1A6807F11003104641
:101B10001946BA6A002301F0AFFBF86116E00E4BDC
:101B20001A6807F11003104619460022002301F03D
:101B3000A3FBF8610AE0084B1A6807F1100310468E
:101B400019463A68002301F057FCF861FB69184612
:101B50002037BD4680BD00BF280A002080B586B072
:101B600002AF78603960184B1B68DB68DB68FB608C
:101B7000FB680433184601F0A1F9FB68DB69012B0F
:101B80001BD1FB689A697B681344F86819463A6868
:101B90007B6800F0A7F80346012B0ED100230093C9
:101BA000F86800217A680023FFF792FFB860BB68ED
:101BB000002B02D102F004F8FEE7FB685B6AF868CC
:101BC00098471037BD4680BD200A002080B584B0FC
:101BD00000AF786007F10803184600F03FF8F8609E
:101BE000BB68F868194600F003F800F0BDF8F1E7AB
:101BF00080B584B000AF7860396000F06DFB07F10C
:101C00000803184600F04EF8F860BB68002B1ED1A0
:101C10003B68002B0AD17A68FB689A4206D800F02C
:101C200069FB7868F968FFF799FF12E00A4B1A68B8
:101C30007968FB68CB1A1046194601F095FE00F052
:101C400059FB0346002B04D101F082FF01E000F0B4
:101C500051FB1037BD4680BD280A002080B485B0F6
:101C600000AF78600E4B1B681B68002B14BF00236D
:101C70000123DBB21A467B681A607B681B68002B65
:101C800005D1074B1B68DB681B68FB6001E0002384
:101C9000FB60FB6818461437BD465DF8047B70474F
:101CA000200A002080B584B000AF786000F0A8FB67
:101CB000F8600B4B1B68FA689A4205D200F0DCF81A
:101CC0007B6801221A6002E07B6800221A60044BE4
:101CD000FA681A60FB6818461037BD4680BD00BF21
:101CE0002C0A002080B586B000AFF860B9607A6039
:101CF0003B6000237B61FB68BA685A60FB68FA6846
:101D00001A61BA687B689A4212D87A683B68D21A1C
:101D1000FB689B699A4202D301237B611BE0104B55
:101D20001A68FB6804331046194601F08FF812E078
:101D30007A683B689A4206D2BA683B689A4202D3F4
:101D400001237B6107E0074B1A68FB6804331046E8
:101D5000194601F07BF87B6918461837BD4680BDEF
:101D6000240A0020200A002080B58AB002AF70E06B
:101D7000BB68002B6DDB3B69FB61FB695B69002B7A
:101D800004D0FB690433184601F098F83B1D18464F
:101D9000FFF788FFB861BB68092B59D801A252F838
:101DA00023F000BFCD1D0008CD1D0008CD1D00088B
:101DB000511E00081F1E0008491E0008CD1D000806
:101DC000CD1D0008511E00081F1E0008FA68FB699F
:101DD0009B691A44FB68F8691146BA69FFF782FFEC
:101DE0000346012B1AD1FB695B6AF8699847FB69C6
:101DF000DB69012B12D1FA68FB699B69134400224D
:101E00000092F86900211A460023FFF761FE78610D
:101E10007B69002B02D101F0D3FEFEE719E0FA68DE
:101E2000FB699A61FB699B69002B02D101F0C8FE36
:101E3000FEE7FB699A69BB691344F8691946BA69F8
:101E4000BB69FFF74FFF04E0F86902F0D5F800E046
:101E500000BF084B1A6807F1080310461946002214
:101E6000002301F033FB0346002B81D12037BD4610
:101E700080BD00BF280A002080B588B002AF3DE0D9
:101E8000274B1B68DB681B687B61254B1B68DB6885
:101E9000DB683B613B690433184601F00FF83B698E
:101EA0005B6A386998473B69DB69012B26D13B693E
:101EB0009A697B691344FB60FA687B699A420ED980
:101EC0003B69FA685A603B693A691A61144B1A68AF
:101ED0003B6904331046194600F0B8FF0EE00023BA
:101EE0000093386900217A690023FFF7F1FDB8609B
:101EF000BB68002B02D101F063FEFEE7084B1B68B4
:101F00001B68002BBCD1064B1B687B60054B1A6815
:101F1000034B1A60034B7A681A601837BD4680BDC0
:101F2000200A0020240A002080B500AF01F020FE26
:101F3000154B1B68002B24D1144800F037FF1448C0
:101F400000F034FF134B114A1A60134B104A1A6009
:101F50000A200C21002201F005F902460A4B1A6002
:101F6000094B1B68002B02D101F02AFEFEE7064B4D
:101F70001B68002B05D0044B1B681846074901F06D
:101F8000A9FC01F005FE80BD280A0020F809002008
:101F90000C0A0020200A0020240A00204C760008A9
:101FA00080B582B000AF78607B68064A1A637B68B0
:101FB00024331846FEF740FA4FF4967000F020F9EB
:101FC000F2E700BF0000204180B400AFFEE700BF91
:101FD00080B400AFFEE700BF80B582B000AF78608C
:101FE000786802F0EDFF0837BD4680BD80B58AB045
:101FF00002AFF860B9603B601346FB80FB68002BC2
:1020000002D101F0DDFDFEE7BB6A042B02D901F02D
:10201000D7FDFEE7FB881846396B00F093FDB861E9
:10202000BB69002B72D0BB691A6BFB8803F180433C
:10203000013B9B0013447B617B6923F007037B61B9
:102040007B6903F00703002B02D001F0B9FDFEE726
:10205000FB880093B869B968BA6A7B6B00F07AFCB8
:102060007869F9683A6801F0ABFC0246BB691A600E
:10207000FB6A002B02D0FB6ABA691A6001F078FD96
:102080002E4B1B685A1C2D4B1A602D4B1B68002BC6
:1020900009D12B4BBA691A60284B1B68012B0FD151
:1020A00000F0A2FC0CE0274B1B68002B08D1244B4E
:1020B0001B68DA6ABB6A9A4202D8214BBA691A6075
:1020C000214B1B685A1C204B1A601F4B1A68BB69B6
:1020D0001A64BB69DA6A1D4B1B689A4203D9BB6953
:1020E000DA6A1A4B1A60BB69DA6A13469B0013441A
:1020F0009B00174A1A44BB6904331046194600F086
:1021000081FE0123FB6101F043FD02E04FF0FF334C
:10211000FB61FB69012B0BD10A4B1B68002B07D01D
:10212000074B1B68DA6ABB6A9A4201D201F010FDC4
:10213000FB6918462037BD4680BD00BF080B002054
:10214000300A0020140B0020240B0020100B00206C
:10215000340A002080B584B000AF786001F008FD3B
:102160007B68002B02D1204B1B6800E07B68FB6082
:10217000FB680433184600F0A1FEFB689B6A002B45
:1021800004D0FB681833184600F098FEFB6804334F
:102190001648194600F036FE154B1B685A1C144BA6
:1021A0001A60144B1B685A1C124B1A6001F0F0FCA9
:1021B000114B1B68002B14D00B4B1B68FA689A421A
:1021C00009D10E4B1B68002B02D001F0F9FCFEE791
:1021D00001F0BEFC05E001F0CBFC00F0F5FC01F0E5
:1021E000D7FC1037BD4680BD300A0020DC0A002035
:1021F000F00A0020240B0020140B0020280B0020E4
:1022000080B584B000AF78600023FB607B68002B52
:1022100019D0114B1B68002B02D001F0D1FCFEE756
:1022200000F05AF80D4B1A687B681344BB600C4BE6
:102230001B680433184600F041FEB86800F04CFCFF
:1022400000F058F8F860FB68002B01D101F080FC29
:102250001037BD4680BD00BF280B00200C0B0020AE
:10226000300A002080B586B004AF0023009300231D
:1022700001930023029300230393134813498222FE
:102280000023FFF7B3FE78607B68012B02D1FFF7D4
:10229000F3FB78607B68012B0CD101F091FC0C4BB7
:1022A00001221A600B4B00221A6000F0DBFE01F0E5
:1022B000E7FB05E07B68002B02D101F081FCFEE723
:1022C0000837BD4680BD00BF312900089076000860
:1022D000140B00200C0B002080B400AF044B1B68D3
:1022E0005A1C034B1A60BD465DF8047B704700BF63
:1022F000280B002080B582B000AF00237B60384BF4
:102300001B68002B02D101F05BFCFEE701F030FC02
:10231000334B1B685A1E324B1A60314B1B68002B23
:1023200056D1304B1B68002B52D02FE02E4BDB6870
:10233000DB683B603B681833184600F0BFFD3B6824
:102340000433184600F0BAFD3B68DA6A274B1B6875
:102350009A4203D93B68DA6A244B1A603B68DA6A0E
:1023600013469B0013449B00214A1A443B680433E4
:102370001046194600F046FD3B68DA6A1D4B1B68A3
:10238000DB6A9A4202D31C4B01221A60164B1B686F
:10239000002BCBD1194B1B68002B11D00CE000F0A7
:1023A00041F80346002B02D0134B01221A60134B55
:1023B0001B685A1E114B1A60104B1B68002BEED184
:1023C0000D4B1B68012B03D101237B6001F0C0FB87
:1023D00001F0DEFB7B6818460837BD4680BD00BFB4
:1023E000280B0020080B0020C80A0020100B00203A
:1023F000340A0020300A00201C0B0020180B00209B
:1024000080B582B000AF01F0B3FB054B1B687B6069
:1024100001F0BEFB7B6818460837BD4680BD00BF93
:102420000C0B002080B586B000AF00237B61524BBF
:102430001B68002B40F08D80504B1B685A1C4F4B83
:102440001A604E4B1B683B613B69002B18D14C4B0B
:102450001B681B68002B02D001F0B2FBFEE7484B63
:102460001B68FB60474B1A68454B1A60454BFA687E
:102470001A60454B1B685A1C434B1A6000F0A4FBC2
:10248000424B1B683A699A424ED33D4B1B681B680E
:10249000002B01D1012300E00023002B04D03B4B93
:1024A0004FF0FF321A603FE0354B1B68DB68DB689A
:1024B000BB60BB685B687B603A697B689A4203D209
:1024C000324B7A681A602FE0BB680433184600F07C
:1024D000F5FCBB689B6A002B04D0BB681833184618
:1024E00000F0ECFCBB68DA6A294B1B689A4203D9FE
:1024F000BB68DA6A264B1A60BB68DA6A13469B002F
:1025000013449B00234A1A44BB68043310461946FF
:1025100000F078FCBB68DA6A1F4B1B68DB6A9A42E2
:1025200001D301237B61B0E71B4B1B68DA6A1949B1
:1025300013469B0013449B000B441B68012B01D9DD
:1025400001237B61154B1B68002B09D1FEF780FD31
:1025500006E0124B1B685A1C104B1A60FEF778FD00
:102560000F4B1B68002B01D001237B617B69184650
:102570001837BD4680BD00BF280B00200C0B002083
:10258000C00A0020C40A0020200B00200800002000
:10259000100B0020340A0020300A0020180B002005
:1025A0001C0B002080B582B000AF414B1B68002B94
:1025B00003D0404B01221A6077E03E4B00221A60A4
:1025C00000F06EFD02463C4B1A603B4B1A683B4BD9
:1025D0001B689A4209D93A4B1B68D96C364A106875
:1025E000364A1268821A0A44DA64334B1A68334B4B
:1025F0001A60334B1B681A68314B1B681B6B9A427D
:1026000008D82F4B1A682E4B1B68343310461946D6
:10261000FEF71AFD2A4B1B681B6B1846294914222A
:1026200002F072FF0346002B09D0254B1A68244B99
:102630001B68343310461946FEF706FD0CE00BE02C
:10264000214B1B68002B02D101F0BAFAFEE71E4BAA
:102650001B685A1E1C4B1A601B4B1A681B491346F9
:102660009B0013449B000B441B68002BE8D0164BC7
:102670001A6813469B0013449B00144A13447B6062
:102680007B685B685A687B685A607B685A687B68BD
:1026900008339A4204D17B685B685A687B685A6049
:1026A0007B685B68DA68064B1A600837BD4680BDF8
:1026B000280B00201C0B0020300B00202C0B0020CE
:1026C000300A0020CC760008100B0020340A0020CD
:1026D00080B584B000AF786039607B68002B02D190
:1026E00001F06EFAFEE7124B1B6818337868194642
:1026F00000F0ACFB0E4B1B680433184600F0DEFB09
:102700003B68B3F1FF3F07D1094B1B68043309480D
:10271000194600F077FB07E0074B1A683B68134443
:10272000FB60F86800F0D8F91037BD4680BD00BFE7
:10273000300A0020F40A00200C0B002080B584B081
:1027400000AF786039607B68002B02D101F038FA65
:10275000FEE70C4B1B6818337868194600F052FBF3
:10276000084B1B680433184600F0A8FB064B1A6898
:102770003B681344FB60F86800F0AEF91037BD46C3
:1027800080BD00BF300A00200C0B002080B584B053
:1027900000AF78607B68DB68DB68BB60BB68002BE0
:1027A00002D101F00DFAFEE7BB681833184600F0BD
:1027B00085FB1E4B1B68002B1DD1BB6804331846DC
:1027C00000F07CFBBB68DA6A194B1B689A4203D99C
:1027D000BB68DA6A164B1A60BB68DA6A13469B005C
:1027E00013449B00134A1A44BB680433104619462D
:1027F00000F008FB05E0BB6818330F48194600F0ED
:1028000001FBBB68DA6A0D4B1B68DB6A9A4205D98B
:102810000123FB600A4B01221A6001E00023FB60E8
:10282000FB6818461037BD4680BD00BF280B00204E
:10283000100B0020340A0020C80A0020300A0020B3
:102840001C0B002080B582B000AF78607B68002B45
:1028500002D101F0B5F9FEE7054B1A687B681A60F2
:10286000044B1A687B685A600837BD4680BD00BFBC
:10287000200B00200C0B002080B584B000AF7860E6
:1028800039607B68002B02D101F09AF9FEE73B68C2
:10289000002B02D101F094F9FEE701F069F91C4B1D
:1028A0001B68BB603B681B68B3F1FF3F02D100238C
:1028B000FB6026E07B681A68164B1B689A4207D0BB
:1028C0007B685A68BB689A4202D80123FB6018E013
:1028D0007B685B68BA68D21A3B681B689A420ED262
:1028E0003B681A687B685968BB68CB1A1A443B6816
:1028F0001A607868FFF7A6FF0023FB6001E0012360
:10290000FB6001F045F9FB6818461037BD4680BDF5
:102910000C0B0020200B002080B400AF034B0122E1
:102920001A60BD465DF8047B704700BF1C0B002099
:1029300080B582B000AF786000F094F8044B1B685B
:10294000012B01D901F004F9FEF78CFBF4E700BF7D
:10295000340A002080B586B000AFF860B9607A60B4
:102960003B6000237B6112E0BA687B6913441A78EC
:10297000F9687B690B4430331A71BA687B69134478
:102980001B78002B00D105E07B6901337B617B69FB
:10299000092BE9D9FB68002283F83D207B68042BD2
:1029A00001D904237B60FB687A68DA62FB687A6885
:1029B0009A64FB680433184600F018FAFB68183371
:1029C000184600F013FAFB68FA681A617B68C3F1D5
:1029D0000502FB689A61FB68FA685A62FB6800228C
:1029E000DA641837BD4680BD80B582B000AF0023E1
:1029F0007B600CE07A6813469B0013449B00114AED
:102A00001344184600F0D2F97B6801337B607B6881
:102A1000042BEFD90C4800F0C9F90C4800F0C6F9B6
:102A20000B4800F0C3F90B4800F0C0F90A4800F069
:102A3000BDF90A4B044A1A60094B044A1A60083768
:102A4000BD4680BD340A0020980A0020AC0A002050
:102A5000C80A0020DC0A0020F40A0020C00A002076
:102A6000C40A002080B582B000AF28E0FFF734FC34
:102A7000164B1B68002B14BF00230123DBB27B60C5
:102A8000FFF738FC7B68002B19D101F071F80F4B70
:102A9000DB68DB683B603B680433184600F00EFAE5
:102AA0000B4B1B685A1E0A4B1A600A4B1B685A1EB6
:102AB000084B1A6001F06CF8386800F075F8054BA7
:102AC0001B68002BD2D10837BD4680BDDC0A002030
:102AD000080B0020F00A002080B582B000AF7860BB
:102AE000134B1B687A685A60124B1B687A689A42CB
:102AF00009D2114B1A680E4B1B6804331046194655
:102B000000F0A4F910E00D4B1A68094B1B68043360
:102B10001046194600F09AF9094B1B687A689A42E8
:102B200002D2074B7A681A600837BD4680BD00BFE5
:102B3000300A00200C0B0020C40A0020C00A00202C
:102B40000800002080B584B000AF03463960FB80E8
:102B5000502001F039FAF860FB68002B1FD03B6869
:102B6000002B06D1FB889B00184601F02DFA034686
:102B700000E03B68FA681363FB681B6B002B05D110
:102B8000F86801F039FA0023FB6008E0FB681A6B73
:102B9000FB889B001046A5211A4602F083FDFB68C6
:102BA00018461037BD4680BD80B582B000AF786052
:102BB0007B681B6B184601F01FFA786801F01CFA5D
:102BC0000837BD4680BD00BF80B483B000AF0E4B58
:102BD0001B681B68002B01D1012300E00023002BA0
:102BE00004D00A4B4FF0FF321A6008E0064B1B6816
:102BF000DB68DB687B607B685A68044B1A600C37C3
:102C0000BD465DF8047B7047C00A00200800002024
:102C100080B483B000AF054B1B687B607B681846AF
:102C20000C37BD465DF8047B704700BF300A0020BA
:102C300080B483B000AF0B4B1B68002B02D1012383
:102C40007B6008E0084B1B68002B02D102237B60ED
:102C500001E000237B607B6818460C37BD465DF8B9
:102C6000047B7047140B0020280B002080B584B033
:102C700000AF78607B68FB607B68002B4AD0FB6804
:102C8000DA6A264B1B68DB6A9A4243D2FB689B696F
:102C9000002B06DB214B1B68DB6AC3F10502FB68D6
:102CA0009A61FB685969FB68DA6A13469B00134412
:102CB0009B001B4A1344994201D1012300E00023E9
:102CC000002B22D0FB680433184600F0F7F8134BB2
:102CD0001B68DA6AFB68DA62FB68DA6A114B1B6808
:102CE0009A4203D9FB68DA6A0E4B1A60FB68DA6A0B
:102CF00013469B0013449B00094A1A44FB680433A3
:102D00001046194600F07EF804E0044B1B68DA6AAE
:102D1000FB68DA621037BD4680BD00BF300A002074
:102D2000340A0020100B002080B584B000AF78601A
:102D30007B68FB607B68002B30D0FB68DA6AFB683D
:102D40009B6C9A422AD0FB680433184600F0B6F810
:102D5000FB689A6CFB68DA62FB689B69002B05DBF9
:102D6000FB68DB6AC3F10502FB689A61FB68DA6AFB
:102D70000C4B1B689A4203D9FB68DA6A094B1A604C
:102D8000FB68DA6A13469B0013449B00064A1A4408
:102D9000FB6804331046194600F034F81037BD467E
:102DA00080BD00BF100B0020340A002080B483B027
:102DB00000AF78607B6803F108027B685A607B682B
:102DC0004FF0FF329A607B6803F108027B68DA609B
:102DD0007B6803F108027B681A617B6800221A6035
:102DE0000C37BD465DF8047B704700BF80B483B0EC
:102DF00000AF78607B6800221A610C37BD465DF831
:102E0000047B704780B485B000AF786039607B6820
:102E10005B68FB603B68FA685A60FB689A683B68CD
:102E20009A60FB689B683A685A60FB683A689A60E7
:102E30003B687A681A617B681B685A1C7B681A6059
:102E40001437BD465DF8047B704700BF80B485B081
:102E500000AF786039603B681B68BB60BB68B3F14A
:102E6000FF3F03D17B681B69FB600CE07B68083384
:102E7000FB6002E0FB685B68FB60FB685B681A68EC
:102E8000BB689A42F6D9FB685A683B685A603B684F
:102E90005B683A689A603B68FA689A60FB683A68CF
:102EA0005A603B687A681A617B681B685A1C7B68A9
:102EB0001A601437BD465DF8047B704780B485B056
:102EC00000AF78607B681B69FB607B685B687A6831
:102ED00092689A607B689B687A6852685A60FB685F
:102EE0005A687B689A4203D17B689A68FB685A608B
:102EF0007B6800221A61FB681B685A1EFB681A6017
:102F0000FB681B6818461437BD465DF8047B7047A4
:102F100080B500AF154B154AD2F8882042F47002F4
:102F2000C3F88820124B124A126842F001021A605C
:102F30000F4B00229A600E4A0D4B1B6823F08473DE
:102F400023F4803313600A4B0A4A5A60084B084A3C
:102F5000126822F480221A60054B0022DA6000F029
:102F60000BF8024B4FF000629A6080BD00ED00E06C
:102F7000003802401030002480B400AF234B234AB5
:102F8000126C42F080521A64214B214A126842F4BA
:102F900080421A601D4B1D4A92689A601B4B1B4A67
:102FA000926842F400429A60184B184A926842F4C0
:102FB000A0529A60154B174A5A60144B134A126874
:102FC00042F080721A6000BF104B1B6803F0007360
:102FD000002BF9D0104B40F205621A600B4B0B4AE4
:102FE000926822F003029A60084B084A926842F005
:102FF00002029A6000BF054B9B6803F00C03082B8C
:10300000F9D1BD465DF8047B704700BF003802402F
:103010000070004010540007003C024080B485B0AE
:1030200000AF78600B4B1B68002B02D1094B0A4A9A
:103030001A60084B1B68FB60064B1A687B681A44D1
:10304000044B1A60FB6818461437BD465DF8047BD4
:10305000704700BF340B0020C813002080B400AFBD
:10306000FEE700BF80B584B000AF01200121FEF76C
:10307000E5FC4FF0FF33BB605423BB800023BB81D2
:103080000023FB803B1D4FF08040194600F006FFF7
:103090004FF08040012100F077FF1037BD4680BD22
:1030A00080B500AF4FF0804000F062FF0346184645
:1030B00080BD00BF80B584B000AF786039607B68A8
:1030C000FB60FB68002B02D100F07AFDFEE700F008
:1030D0004FFDFB681A68FB68DB6BF968096C01FB44
:1030E00003F31A44FB685A60FB6800229A63FB688A
:1030F0001A68FB689A60FB681A68FB68DB6B013B27
:10310000F968096C01FB03F31A44FB68DA60FB6899
:103110004FF0FF325A64FB684FF0FF329A643B680D
:10312000002B0ED1FB681B69002B14D0FB681033F9
:103130001846FFF72BFB0346012B0CD100F008FDCE
:1031400009E0FB6810331846FFF730FEFB682433B4
:103150001846FFF72BFE00F01BFD01231846103721
:10316000BD4680BD80B588B000AFF860B960134639
:10317000FB710023FB61FB68002B2AD0542000F078
:1031800023FFB861BB69002B23D0FB68BA6802FB40
:1031900003F301337B61786900F016FF0246BB69D7
:1031A0001A60BB691B68002B10D0BB69FA68DA6330
:1031B000BB69BA681A64B8690121FFF77BFFBB6974
:1031C000FA7983F85020BB69FB6102E0B86900F02E
:1031D00013FFFB69002B02D100F0F2FCFEE7FB6954
:1031E00018462037BD4680BD80B584B000AF034689
:1031F000FB71542000F0E8FEF860FB68002B30D033
:10320000FB6800225A60FB6800221A60FB680022FB
:103210009A60FB680022DA60FB6800229A63FB6810
:103220000122DA63FB6800221A64FB684FF0FF3268
:103230005A64FB684FF0FF329A64FB68FA7983F8AE
:103240005020FB6810331846FFF7B0FDFB682433AD
:103250001846FFF7ABFDF86800210022002300F0BC
:103260000BF8FB68002B02D100F0AAFCFEE7FB681C
:1032700018461037BD4680BD80B588B000AFF860F5
:10328000B9607A603B600023FB61FB68BB61BB698E
:10329000002B02D100F094FCFEE7BB68002B03D1A9
:1032A000BB691B6C002B01D1012300E00023002B24
:1032B00002D100F085FCFEE73B68022B03D1BB691D
:1032C000DB6B012B01D1012300E00023002B02D195
:1032D00000F076FCFEE7FFF7ABFC0346002B02D1C3
:1032E0007B68002B01D1012300E00023002B02D1D9
:1032F00000F066FCFEE700F03BFCBB699A6BBB6923
:10330000DB6B9A4202D33B68022B16D1B869B968CD
:103310003A6800F0D7F9BB695B6A002B09D0BB693A
:1033200024331846FFF732FA0346012B01D100F08F
:103330000FFC00F02DFC012359E07B68002B03D12A
:1033400000F026FC002352E0FB69002B06D107F1B8
:1033500010031846FFF776FA0123FB6100F018FC12
:10336000FEF7BAFF00F004FCBB695B6CB3F1FF3FF2
:1033700002D1BB6900225A64BB699B6CB3F1FF3F69
:1033800002D1BB6900229A6400F002FC07F110022E
:103390003B1D10461946FFF76FFA0346002B1ED15E
:1033A000B86900F07FFA0346002B12D0BB6903F125
:1033B00010027B6810461946FFF78AF9B86900F0D9
:1033C0000FFAFEF797FF0346002B0FD100F0C0FB6A
:1033D0000CE0B86900F004FAFEF78CFF8BE7B869DF
:1033E00000F0FEF9FEF786FF002300E083E71846B1
:1033F0002037BD4680BD00BF80B588B000AFF86003
:10340000B9607A603B60FB68BB61BB69002B02D18D
:1034100000F0D6FBFEE7BB68002B03D1BB691B6C39
:10342000002B01D1012300E00023002B02D100F08A
:10343000C7FBFEE73B68022B03D1BB69DB6B012BAB
:1034400001D1012300E00023002B02D100F0B8FBE2
:10345000FEE700F027FC00F0B3FB7861BB699A6BD4
:10346000BB69DB6B9A4202D33B68022B24D1B8695B
:10347000B9683A6800F026F9BB699B6CB3F1FF3F6D
:1034800012D1BB695B6A002B13D0BB692433184689
:10349000FFF77CF90346002B0BD07B68002B08D08C
:1034A0007B6801221A6004E0BB699B6C5A1CBB69F3
:1034B0009A640123FB6101E00023FB61786900F05D
:1034C00089FBFB6918462037BD4680BD80B58AB0B0
:1034D00000AFF860B9607A603B6000237B62FB68F4
:1034E0003B623B6A002B02D100F06AFBFEE7BB683F
:1034F000002B03D13B6A1B6C002B01D1012300E0A0
:103500000023002B02D100F05BFBFEE7FFF790FBEE
:103510000346002B02D17B68002B01D1012300E080
:103520000023002B02D100F04BFBFEE700F020FB54
:103530003B6A9B6B002B3BD03B6ADB68FB61386AC4
:10354000B96800F027F93B68002B1CD13B6A9B6BE4
:103550005A1E3B6A9A633B6A1B68002B04D1FFF733
:1035600057FB02463B6A5A603B6A1B69002B1BD023
:103570003B6A10331846FFF709F90346012B13D1B4
:1035800000F0E6FA10E03B6AFA69DA603B6A5B6ACF
:10359000002B09D03B6A24331846FFF7F7F803469F
:1035A000002B01D000F0D4FA00F0F2FA012366E01B
:1035B0007B68002B03D100F0EBFA00235FE07B6A0D
:1035C000002B06D107F114031846FFF73BF901233E
:1035D0007B6200F0DDFAFEF77FFE00F0C9FA3B6A7D
:1035E0005B6CB3F1FF3F02D13B6A00225A643B6A35
:1035F0009B6CB3F1FF3F02D13B6A00229A6400F05A
:10360000C7FA07F114023B1D10461946FFF734F9BB
:103610000346002B2BD1386A00F02EF90346002B0D
:103620001FD03B6A1B68002B08D100F0A1FA3B6A4F
:103630005B681846FFF71AFB00F0AAFA3B6A03F131
:1036400024027B6810461946FFF742F8386A00F0FA
:10365000C7F8FEF74FFE0346002B0FD100F078FAB3
:103660000CE0386A00F0BCF8FEF744FE5EE7386A0A
:1036700000F0B6F8FEF73EFE002300E056E71846DD
:103680002837BD4680BD00BF80B584B000AF7860EC
:103690007B68FB60FB68002B02D100F091FAFEE72B
:1036A000F86800F03FF9FB681B68002B04D0FB684A
:1036B0001B68184600F0A0FCF86800F09DFC10376D
:1036C000BD4680BD80B584B000AFF860B9607A6057
:1036D000FB681B6C002B0CD1FB681B68002B51D1C5
:1036E000FB685B681846FFF71FFBFB6800225A6007
:1036F00048E07B68002B1AD1FB689A68FB681B6C5A
:103700001046B9681A4601F033FFFB689A68FB68F7
:103710001B6C1A44FB689A60FB689A68FB685B68DC
:103720009A422FD3FB681A68FB689A602AE0FB680C
:10373000DA68FB681B6C1046B9681A4601F018FF7E
:10374000FB68DA68FB681B6C5B421A44FB68DA6052
:10375000FB68DA68FB681B689A4207D2FB685A6804
:10376000FB681B6C5B421A44FB68DA607B68022BC7
:1037700008D1FB689B6B002B04D0FB689B6B5A1E27
:10378000FB689A63FB689B6B5A1CFB689A63103753
:10379000BD4680BD80B582B000AF786039607B687F
:1037A0001B68002B19D07B68DA687B681B6C1A4495
:1037B0007B68DA607B68DA687B685B689A4203D36F
:1037C0007B681A687B68DA607B68DA687B681B6CE8
:1037D000386811461A4601F0CBFE0837BD4680BD59
:1037E00080B582B000AF786000F0C2F914E07B6869
:1037F0005B6A002B0AD07B6824331846FEF7C6FFAD
:103800000346002B03D0FFF787F800E008E07B6851
:103810009B6C5A1E7B689A647B689B6C002BE6DC71
:103820007B684FF0FF329A6400F0B2F900F0A0F923
:1038300014E07B681B69002B0FD07B68103318469F
:10384000FEF7A4FF0346002B01D0FFF765F87B6865
:103850005B6C5A1E7B685A6400E003E07B685B6C1B
:10386000002BE6DC7B684FF0FF325A6400F090F9E1
:103870000837BD4680BD00BF80B584B000AF78601A
:1038800000F076F97B689B6B002B02D10123FB6073
:1038900001E00023FB6000F07BF9FB68184610375D
:1038A000BD4680BD80B584B000AF786000F060F99F
:1038B0007B689A6B7B68DB6B9A4202D10123FB60C9
:1038C00001E00023FB6000F063F9FB681846103745
:1038D000BD4680BD80B485B000AF786039600023FC
:1038E000FB6014E00E4BFA6853F83230002B0BD11A
:1038F0000B4BFA68396843F83210094AFB68DB0061
:1039000013447A685A6005E0FB680133FB60FB688A
:10391000072BE7D91437BD465DF8047B704700BF1D
:103920008413002080B485B000AF78600023FB6072
:1039300010E00C4AFB68DB0013445A687B689A422B
:1039400005D1084BFA68002143F8321005E0FB6806
:103950000133FB60FB68072BEBD91437BD465DF8DC
:10396000047B70478413002080B584B000AF78607A
:1039700039607B68FB6000F0FBF8FB685B6CB3F1BF
:10398000FF3F02D1FB6800225A64FB689B6CB3F1D5
:10399000FF3F02D1FB6800229A6400F0F9F8FB684F
:1039A0009B6B002B05D1FB68243318463968FEF762
:1039B000C5FEF868FFF714FF1037BD4680BD00BF95
:1039C00080B485B000AFF860B9607A60FB68043BF2
:1039D000FB60FB684FF080721A60FB68043BFB6081
:1039E000BA68FB681A60FB68043BFB600C4AFB6822
:1039F0001A60FB68143BFB607A68FB681A60FB681E
:103A0000043BFB60FB686FF002021A60FB68203B1E
:103A1000FB60FB6818461437BD465DF8047B7047B1
:103A2000253A000880B500AF054B1B68B3F1FF3F96
:103A300002D000F0C5F8FEE700F0C2F8FEE700BFD4
:103A400020000020064B19680868B0E8F04F80F3AA
:103A50000988BFF36F8F4FF0000080F31188704723
:103A6000300A002005480068006880F3088862B6C4
:103A7000BFF34F8FBFF36F8F00DF00BF08ED00E093
:103A800080B584B000AF2C4BFB60FB681B78DBB2C9
:103A9000BB60FB68FF221A70FB681B78DBB2FB710E
:103AA000FB79DBB203F05003DAB2244B1A70244BDB
:103AB00007221A6009E0224B1B685A1E204B1A602D
:103AC000FB79DBB25B00DBB2FB71FB79DBB2DBB213
:103AD0005BB2002BEFDB1A4B1B681A02184B1A6003
:103AE000174B1B6803F4E062154B1A60BB68DAB22F
:103AF000FB681A70134B134A126842F470021A6082
:103B0000104B104A126842F070421A6000F0A6F89A
:103B10000D4B00221A6000F0BBF80C4B0B4A1268E8
:103B200042F040421A60FFF79DFFFFF77BFF002342
:103B300018461037BD4680BD00E400E0380B002079
:103B40003C0B002020ED00E02000002034EF00E0DE
:103B500080B400AF054B4FF080521A60BFF34F8F17
:103B6000BFF36F8FBD465DF8047B704704ED00E046
:103B700080B500AF00F024F8044B1B685A1C034BBF
:103B80001A60BFF34F8FBFF36F8F80BD20000020FE
:103B900080B500AF094B1B68002B02D100F010F874
:103BA000FEE7064B1B685A1E044B1A60034B1B684A
:103BB000002B02D1002000F00DF880BD2000002075
:103BC000EFF311804FF0500181F31188704700230B
:103BD000184600BF80F31188704700BFEFF30980DB
:103BE000BFF36F8F124B1A681EF0100F08BF20ED45
:103BF000108A20E9F04F10604DF8043D4FF050005E
:103C000080F31188FEF7CEFC4FF0000080F311889E
:103C100008BC19680868B0E8F04F1EF0100F08BF24
:103C2000B0EC108A80F30988BFF36F8F704700BF34
:103C3000300A002080B500AFFFF7C2FFFEF7F2FBAD
:103C40000346002B03D0044B4FF080521A60002033
:103C5000FFF7C0FF80BD00BF04ED00E080B400AFFF
:103C6000074B084A1168084AA2FB01029209013A6F
:103C70001A60064B07221A60BD465DF8047B704748
:103C800014E000E00C000020D34D621010E000E0D2
:103C9000DFF80C00016841F470010160704700001A
:103CA00088ED00E080B582B000AFEFF305837B6064
:103CB0007B680F2B0CD90D4A7B6813441B78FB7073
:103CC0000B4B1B78FA789A4202D2FFF779FFFEE796
:103CD000084B1B6803F4E062074B1B689A4202D949
:103CE000FFF76EFFFEE70837BD4680BDF0E300E05A
:103CF000380B00200CED00E03C0B002082B080B5BA
:103D000082B000AF7860396007F1100181E80C00E3
:103D10007B683B613B687B613B68184607F110019B
:103D2000FCF764FE0837BD46BDE8804002B070472E
:103D300082B080B582B000AF7860396007F11001C1
:103D400081E80C007B683B613B681B687B617B6999
:103D500018463968FCF74AFE0837BD46BDE8804082
:103D600002B0704780B582B000AF78607B682033C6
:103D700018460421FCF780FD0837BD4680BD00BF12
:103D800080B588B000AF78607868FFF7EBFF07F187
:103D90000C031846FCF7DEFC05E007F10C0378681D
:103DA000194600F013F87B6803F1200207F10C03B9
:103DB00010461946FCF774FD0346002BEDD14FF475
:103DC0009670FEF71DFA00BFEDE700BFB0B592B0E8
:103DD00004AF7860396000237B633B681B7A042B57
:103DE00002D00A2B43D049E07B6803F120053B68F1
:103DF0001C6807F10C0300220092002201920022AD
:103E00000292002203921846052100220023FCF7AB
:103E100005FE6B4607F1140207CA83E8070007F1A5
:103E20000C030CCB28462146FFF768FF7B6803F1A3
:103E3000200407F1200300220092002201920022B8
:103E40000292002203921846052100220023FCF76B
:103E5000E5FD6B4607F1280207CA83E8070007F172
:103E600020030CCB20463968FFF762FF06E07B6B2E
:103E700001337B637B6B01337B6300BF00BF38374B
:103E8000BD46B0BD80B483B000AF78607B68184693
:103E90000C37BD465DF8047B704700BF80B485B029
:103EA00000AF786039600023FB817B681B88FB8151
:103EB0007A68284B9A4213D07A68274B9A420FD0DF
:103EC0007B68B3F1804F0BD07A68244B9A4207D0BD
:103ED0007A68234B9A4203D07A68224B9A4208D1DF
:103EE000FB8923F07003FB813B685A88FB891343ED
:103EF000FB817A681C4B9A420CD07A681B4B9A4221
:103F000008D0FB8923F44073FB813B681A89FB8945
:103F10001343FB817B68FA891A803B685A687B6887
:103F2000DA623B681A887B681A857A68094B9A427C
:103F300003D07A68084B9A4204D13B689B7A1A46B0
:103F40007B681A867B6801229A821437BD465DF829
:103F5000047B704700000140000401400004004061
:103F600000080040000C0040001000400014004019
:103F700080B483B000AF78607B685B6A18460C370A
:103F8000BD465DF8047B704780B483B000AF7860B5
:103F90000B46FB70FB78002B08D07B681B889BB21C
:103FA00043F001039AB27B681A8007E07B681B88A4
:103FB0009BB223F001039AB27B681A800C37BD468E
:103FC0005DF8047B704700BF80B584B000AF7860B7
:103FD000FEF782F9786800F0EBFF0346FB60FEF71E
:103FE00089F9FB68002B01D1FDF748F8FB681846FA
:103FF0001037BD4680BD00BF80B582B000AF78608D
:104000007B68002B06D0FEF767F9786800F0D8FFD0
:10401000FEF770F90837BD4680BD00BF03685A003F
:104020004CBF43F0004323F000431844704700BFE7
:104030002DE9F04F064683B0914621B30139019135
:104040008846002707EB080404EBD4746410E500ED
:1040500006EB050B5846FFF7E1FF019B8246A342A2
:1040600005F10800304419D0FFF7D8FFCA4500F128
:10407000FF3004D9BC420BD004F1FF38E2E74845D9
:1040800002D2671CDEE78B46584603B0BDE8F08FCE
:104090004FF0000B584603B0BDE8F08FCA45E9D891
:1040A000F2E700BF012807D0022807D0044B002800
:1040B0000CBF1846002070470248704702487047FE
:1040C000D5470008DD470008E547000830B5274B15
:1040D00083B004468D1E002B42D0284601A9AFF3C1
:1040E0000080034623B32A460199FFF7A1FF054646
:1040F00018B3FFF793FF6B68A064012B12D0002B5D
:1041000005F1040028DBFFF789FF0023E064236545
:104110000368002B16DBFFF781FF002320611846A0
:1041200003B030BD002323610523184603B030BD22
:1041300023610923184603B030BD092320611846C6
:1041400003B030BDC3F30360FFF7ACFF002820616C
:1041500014BF00230923E2E70123E0642365D7E7C6
:10416000034B04481B1ADB100193BCE7000000005E
:104170005C8100087C7D00080368DA0710B50446FE
:1041800006D49B0700F1480009D500F069FC2368BC
:10419000590709D51A070ED5DB0613D510BD00F057
:1041A00057FC23685907F5D404F1D00000F060FCF7
:1041B00023681A07F0D404F5A87000F061FC2368A6
:1041C000DB06EBD404F5E870BDE8104000F09CBCC1
:1041D00003680BB1184470471846704709207047B0
:1041E000704700BF70B504460D4608E02B6C636154
:1041F0000120236921462A469847082808D12046ED
:10420000296CFFF763FF06460028EFD0FEF726FF74
:104210000728FBD13046296CFFF7E2FF281D00F08C
:104220000BFC00BF2DE9F0470C1D054617460FCCCF
:10423000ADF5727D03AE0FC60FCC0FC60FCC0FC607
:1042400094E80F0002AC4FF0000ED5F80C80D5F8C2
:10425000189086E80F002846216CC4F800E0FFF7AC
:1042600035FF002F064614BF0A27092786B1A06B29
:104270002A468DE8100247F0100160642B460120A9
:10428000C04700282FD130460DF5727DBDE8F0877C
:10429000236C6B6121464FF4F0727AA801F068F943
:1042A0002B6929467AAA38469847889B82468DE82A
:1042B00010023946636401202A462B46C04790B954
:1042C00020467AA94FF4F07201F052F9BAF1080FC2
:1042D00006D12846216CFFF7F9FE09270646C5E7F7
:1042E000BAF1070F04D009200DF5727DBDE8F08703
:1042F0003046216CFFF774FF03A800F09DFB00BF60
:10430000406C7047F0B5CB6B0B640E1D0F46044636
:104310000FCEF9B001AD0FC50FCE0FC50FCE0FC533
:1043200096E80F004FF0FF3685E80F00009606E094
:10433000236921466A4698470828054608D1204641
:104340001099FFF7C3FE0028F2D0092079B0F0BD24
:104350006846FFF711FF062DF7D120463946FFF7D3
:1043600041FF00BF30B4DD6BC160826119461D643E
:10437000002230BCFFF756BF70B5C66843690B64B6
:1043800004460D4626B10122FFF74CFFFEF766FEFC
:104390000369214602202A469847072807D00828A3
:1043A00003D120462946FFF71DFFFEF757FE304692
:1043B000296CFFF715FF281D00F03EFBC26822B1F3
:1043C000CA6B0A640022FFF72DBF9BE7704700BF4E
:1043D00008B5836813B101460120984708BD00BFA6
:1043E00010B4042909D8DFE801F00703080303002B
:1043F00001205DF8044B70471BB102205DF8044BAF
:1044000070470F2AF9D800EB820218465368019AC8
:104410001360EEE700B585B00A4603AB00210093B8
:104420000B46FFF7DDFF039805B05DF804FB00BF06
:1044300010B4042909D8DFE801F0070308030300DA
:1044400001205DF8044B70471BB102205DF8044B5E
:1044500070470F2AF9D800EB820201980168516079
:104460001846EEE710B584B004AB0C4643F8042DB3
:104470000021009322460B46FFF7DAFF04B010BD7F
:10448000F0B5D36B1364151D07460E460FCDADF581
:104490000F7D17AC0FC40FCD0FC40FCD0FC495E81F
:1044A0000F004FF0FF3584E80F00169510E016A8B6
:1044B000FFF7D8FF314616A8B847694616AA78B95B
:1044C000049B08209847052804460AD0092807D0ED
:1044D00026996846FFF7FAFD6A460C210028E6D0C7
:1044E000092416A8FFF748FE20460DF50F7DF0BD04
:1044F0002DE9F04F0C46C96C8BB01D460E1D0B68A4
:1045000007939046089600F00309002D40F089803B
:104510001B02032207938DF825508DF82420236D6C
:10452000B9F1020F08BFA66B13F0010342D100F0EE
:104530000800C0B2039002933768002F3CD0022DD0
:104540006BD03788B6F802A00436A36C2AF0010BB2
:1045500040460F219B44FFF75DFF834536D827F087
:1045600001039B440AF0010A07F00107584547EA96
:104570004A072CBF00200120012F31D060D3022F29
:1045800020D1336823F000410191B9F1000F40F0D0
:10459000858030B1039A002A00F08D80002900F058
:1045A000B080002BC0F28580019B03F1010A06EB6D
:1045B0008A06C1E700210291022D49DDFFF70EFEB8
:1045C00000284BD009200BB0BDE8F08F0AF0010A9B
:1045D00007F0010747EA4A07012F4FF00000CDD14D
:1045E000B9F1000F41D1B0B196E80C00D70F9A1C79
:1045F000E8D004F158010133069100F0AD80301D80
:10460000FFF7E6FD3A46014606AB204602F076FA91
:10461000002840F0CF8008368EE7D6F804A0083690
:1046200093E7022D3FF77BAF1A0CD7B21B04022190
:104630008DF8252006EB870607938DF824106EE78A
:10464000B9F1000F02D0002840F09080043673E7E3
:10465000404607A900F0F0FA0028B3D1029A002AD8
:1046600059D108200BB0BDE8F08F40460D21276AD4
:10467000FFF7D0FE8742CED1A36A9E42CBD130460F
:10468000FFF7CCFC0F2102464046FFF7EBFE404609
:1046900022460021FFF7E6FE072094E740460D2161
:1046A000276AFFF7B7FE874245D03368002BBFF675
:1046B0007BAF043678E7019919B304F1580CCDF8B3
:1046C00010900595371DDDF80CB0DDF804906546B7
:1046D00002E0CA4515D0D34638460695FFF778FD67
:1046E0000022014606AB204602F008FA0BF1010A4F
:1046F00004370028EDD0019BDDF81090059D5B4547
:10470000D3D140460D21FFF785FE069B2062A662AD
:104710006362062057E70F214046FFF77BFE0E211C
:1047200002464046FFF79EFE40460F21284AFFF70B
:1047300099FE072047E7A36A9E42B6D104220027CC
:10474000B3180199A162E762226363633368BB42D5
:104750001FDB0122029227E740460D21FFF75AFE98
:104760002062069B6362A66206202CE73046FFF7B4
:1047700055FC04360546A663204602F015FA0028CB
:104780003FF420AF40462A460F21FFF76BFE07207B
:1047900019E7481C06EB8000FFF740FC0F2102469A
:1047A0004046FFF75FFE404639462246FFF75AFE75
:1047B000072008E707460D214046FFF72BFE022F92
:1047C0002062CED12346069A43F82C2F6362CAE7B3
:1047D000196D00080023FFF78BBE00BF0123FFF710
:1047E00087BE00BF0223FFF783BE00BF2DE9F04163
:1047F0000446C4B004290BD8DFE801F059030A309D
:104800000E00012B4FEA124596B266D0052B6BD0F5
:10481000022044B0BDE8F081002BF9D1102AF7D86E
:104820002368D90600F1D38022AE3046019200F011
:1048300075F9A56B019A0023012000FA03F11142DA
:1048400003D0296846F8231004350133042BF4D132
:104850003046A56300F058F90020DAE7032BD7D1E2
:10486000150C97B27B19102BD2D823681E0700F1C4
:10487000BF8022AE304600F025F9D4F838E07F0042
:1048800006EBC5007B1E72465FB1CEEB0000AEF1B9
:104890000402013B52F8041F81505D1CF9D10EEB5C
:1048A00087023046A26300F0EBF80020B1E7002B4E
:1048B000AED1A56B96B2012000FA03F1314204D0CB
:1048C00004EB83072968796004350133102BF3D199
:1048D00012F4005075D1A5639BE77219102A97D87E
:1048E0000F2D95D8002708E07719202F90D80F2D8D
:1048F00069D9374646B30F2D11D82268D0070ED597
:1049000022F00101052B2160204600F08B8022F06F
:10491000030240F8482B019300F09EF8019B17B169
:10492000226851076CD4012B74D00F2D04D822A813
:10493000019300F099F8019B37B102A8019300F0B0
:104940009BF8019BC5F11006D4F83880002EC446B0
:1049500012DD22AA4FEA460C02EBC506C8EB06069A
:104960000CF1FF31A8F1040252F8040FB0500139E4
:10497000481CF9D108EB8C0CB7B144AA102D2CBF00
:104980002846102002EBC0004FEA4708A0F5C4708B
:1049900008F1FF32614651F8046B40F8046B013AAC
:1049A000561CF8D10CEB880C012B1AD00F2DC4F833
:1049B00038C002D822A800F053F817B102A800F0BE
:1049C00057F8002025E7102F8CD9103F93E723F0EC
:1049D0001003236004F5E870019200F09FF8019A3B
:1049E00022E70CF10403A36322A800F031F8E8E702
:1049F00023F00803236004F5A87000F063F838E79B
:104A0000204622F0040240F8D02B019300F034F845
:104A1000019B88E722A8019300F01EF8019B002F5C
:104A200090D191E741F0020140F8481B019300F05A
:104A30001BF8019B73E700BF00F1340191E83800D7
:104A40009C46A6464CF8045D90E8FF0FE54600BD85
:104A500090EC210B704700BF80EC210B704700BF2A
:104A600090EC200B704700BF80EC200B704700BF1C
:104A7000D0EC200B704700BFC0EC200B704700BF8C
:104A8000F0EC0201F0EC0211F0EC0221F0EC02314A
:104A9000F0EC0241F0EC0251F0EC0261F0EC02713A
:104AA000F0EC0281F0EC0291F0EC02A1F0EC02B12A
:104AB000F0EC02C1F0EC02D1F0EC02E1F0EC02F11A
:104AC000704700BFE0EC0201E0EC0211E0EC0221D3
:104AD000E0EC0231E0EC0241E0EC0251E0EC02617A
:104AE000E0EC0271E0EC0281E0EC0291E0EC02A16A
:104AF000E0EC02B1E0EC02C1E0EC02D1E0EC02E15A
:104B0000E0EC02F1704700BFB0FC0181B0FC019104
:104B1000B0FC01A1B0FC01B1704700BFA0FC018155
:104B2000A0FC0191A0FC01A1A0FC01B1704700BF55
:104B3000EC4600B52DE900502DE9FF1F4FF00003B2
:104B40002DE90C0001A9FFF7DDFBDDF840E012B014
:104B5000704700BFEC4600B52DE900502DE9FF1F5E
:104B60004FF000032DE90C0001A9FFF705FCDDF86B
:104B700040E012B0704700BFEC4600B52DE9005090
:104B80002DE9FF1F4FF000032DE90C0001A9FFF7ED
:104B900015FCDDF840E012B0704700BFEC4600B5F0
:104BA0002DE900502DE9FF1F4FF000032DE90C0007
:104BB00001ABFFF7D7FBDDF840E012B0704700BF54
:104BC000EC4600B52DE900502DE9FF1F4FF0000322
:104BD0002DE90C0001AAFFF753FCDDF840E012B00C
:104BE000704700BF037A1BB9437A43B9B0207047BE
:104BF0000268013B037213020360100E70474268A3
:104C0000013B4372111D12684160032303721302BA
:104C10000360100E704700BF00B585B003AB0021E4
:104C200000930C220B46FFF7DBFB039805B05DF801
:104C300004FB00BFFFF7F0BF2DE9F043064685B047
:104C40000D464FF000082846FFF7CCFFB028044679
:104C500000F0AC8020F07F0212F0FF0120D000F0C5
:104C6000F002802A73D0902A36D0A02A42D0B02AEF
:104C700056D0C02A00F0828000F0F803D02B0BD170
:104C800000F00704621C42F4002230460121052393
:104C9000FFF7ACFD0028D6D0092005B0BDE8F083B1
:104CA00003AF4FEA80090B46009730460D22FFF70D
:104CB00097FB5FFA89F9039B09F1040960064CBF71
:104CC000C9EB03034B440393002100970B46304686
:104CD0000D22FFF7ADFBB6E700F00D030D2BDBD087
:104CE00003AF002100F00F0200970B463046FFF79C
:104CF00077FBE9E7C2434FF47F6302F0070243FA10
:104D000002F2010702EA03024FF0000148BF42F439
:104D100080420B463046FFF769FD0028BCD192E780
:104D2000B12848D0B22851D0B3287CD000F0FC0381
:104D3000B42BB1D000F007020132012142F400226D
:104D40000B463046FFF752FD0028A5D17BE72846E9
:104D5000FFF748FF24022043B0F5004F9CD0040128
:104D60000021A2B20B463046FFF740FD002893D148
:104D700014F4004F18BF4FF0010864E7C6285ED056
:104D8000C72868D000F0F803C02B77D0C82800F0FF
:104D90008D80C92880D12846FFF724FF00F00F033B
:104DA000013300F0F00243EA02326EE7B8F1000F7F
:104DB0006BD0002071E72846FFF714FF0246002859
:104DC0003FF46AAF10F0F001BAD065E7002103AFFD
:104DD0000D220B4600973046FFF702FB2846FFF7EF
:104DE00001FF02064FF002040CD5039B00F07F0088
:104DF000A040034428460393FFF7F4FE030604F1A2
:104E00000704F2D4039B009700F07F0000FA04F43B
:104E100003F5017300211C4430460B460D22039418
:104E2000FFF706FB0FE72846FFF7DCFE00F00F0355
:104E3000013300F0F002012143EA023280E7284604
:104E4000FFF7D0FE00F00F03013300F0F002032162
:104E500043EA023274E72846FFF7C4FE0246002800
:104E60003FF41AAF10F0F0037FF416AF3046042180
:104E7000FFF7BCFC00287FF40FAFE4E600F00F0260
:104E80000132032142F420225AE703AC41460E22AC
:104E9000434600943046FFF7A3FA0094304641465B
:104EA0000F224346FFF7C4FA4046F6E62846FFF7CE
:104EB00099FE00F0F00200F00F031032013343EAD4
:104EC0000232E2E600B5C36C85B05A6803208DF863
:104ED0000C00084611020191DA798DF80D20083393
:104EE00001A90293FFF7A8FE05B05DF804FB00BF1F
:104EF00008B5FFF79FFE806C08BD00BF08B5FFF73F
:104F000099FEC36CDA7903EB8200083008BD00BF5C
:104F100008B5FEF7A3F800BF08B5FEF79FF800BF7D
:104F200003460846194600F001B800BF10B40C460D
:104F300013460146224602205DF8044B00F012BCE5
:104F400008B50021044600F06BFC044B1868C36BE5
:104F500003B19847204602F05DF900BF14770008BE
:104F600070B50F4E0F4D761BB61007D0043D0024D0
:104F7000013455F8043F9847A642F9D10A4E0B4D2B
:104F8000761B02F049F9B61008D0043D0024013424
:104F900055F8043F9847A642F9D170BD70BD00BFD7
:104FA0006C0800206C080020780800206C080020A5
:104FB000024B0146186800F00BB800BF50040020F7
:104FC000024B0146186800F00FBD00BF50040020DE
:104FD0002DE9F04F01F10B05162D83B0064627D9B8
:104FE00035F0070527D4A94225D8304600F0A4FBA8
:104FF000B5F5FC7F26D2C14F4FEAD50C07EBCC03A9
:10500000DC689C4200F0D2816368E268A16823F00A
:105010000303234430465D68CA6045F00105916092
:105020005D6000F08BFB0834204603B0BDE8F08FD4
:105030001025A942D9D900240C232046336003B09F
:10504000BDE8F08F5FEA552C00F08A80BCF1040FB8
:1050500000F260814FEA951C0CF1380C4FEA4C01CC
:10506000A64F07EB8101CC68A14205D10CE0002BD3
:105070007ADAE468A14207D0626822F00302531B87
:105080000F2BF4DD0CF1FF3C0CF1010C9B4B3C6948
:1050900003F1080E744500F07E81616821F0030180
:1050A0004A1B0F2A00F36481002AC3F814E0C3F8F6
:1050B00010E06ADAB1F5007F80F03A81C90803EBAD
:1050C000C1004FEAA1085A688168A1604FF0010948
:1050D00009FA08F848EA0202E0605A608460CC608D
:1050E0004FEAAC030120984090425BD8024206D1BF
:1050F0002CF0030C400002420CF1040CFAD007EB38
:10510000CC084446E146E3689C4207D145E1002AC9
:1051100080F25681DB689C4200F03F81596821F0A3
:1051200003014A1B0F2AF2DD1C46D3F80CC054F8C9
:10513000088F591945F0010942F00105C3F80490A0
:105140003046C8F80CC0CCF8088079613961C1F8E4
:105150000CE0C1F808E04D608A5000F0EFFA63E718
:105160007E214FF03F0C7BE72244E3685068A16842
:1051700040F00105CB6030469960556000F0DEFAE2
:105180000834204603B0BDE8F08F214430464B6818
:1051900043F001034B6000F0D1FA0834204603B01D
:1051A000BDE8F08FBC68636823F00309A94504D308
:1051B000C5EB09030F2B00F39180514B514A19683D
:1051C0001368013305EB010A04EB090B00F0618160
:1051D0000AF5805A0AF10F0A2AF47F6A2AF00F0AA8
:1051E00030465146019200F0ABFAB0F1FF3F8046E5
:1051F000019A00F00081834500F2FA80DFF810C1C7
:10520000DCF80030C3455344CCF8003000F04A814C
:1052100012683C4901321BBFCBEB080B5B44C1F861
:105220000080CCF8003018F0070300F01381C3F1C0
:105230000802C3F5805390440833C244CAF30B0AF2
:10524000CAEB030A51463046CDF804C000F078FAA4
:10525000431CDDF804C000F03581C8EB0002524465
:1052600042F00102DCF80030C7F808805344BC4229
:10527000C8F80420CCF80030DFF894A015D0B9F1BC
:105280000F0F40F2EA806168A9F10C0222F00702D8
:1052900001F0010EA118052042EA0E0E0F2AC4F8F3
:1052A00004E04860886000F21181174ABC68116808
:1052B0008B4288BF1360154A11688B4288BF136008
:1052C000626822F003029542C5EB020301D80F2B5E
:1052D00004DC304600F032FA0024A5E6621943F0FF
:1052E000010345F0010565603046BA60536000F087
:1052F00025FA0834204603B0BDE8F08F540400209E
:10530000480B002060080020440B0020400B0020C8
:105310004C0B0020BCF1140F61D9BCF1540F00F20A
:105320008F804FEA153C0CF16E0C4FEA4C0197E66A
:105330004B0A042B58D9142B00F2AE8003F15B0208
:10534000500007EB8000DFF8BC818368834200F0E7
:105350008A805A6822F00302914202D29B689842E6
:10536000F7D1D9687A68E160A3608C60DC60B7E649
:10537000611942F0010745F0010565603046596149
:105380001961C1F80CE0C1F808E04F608A50083498
:1053900000F0D4F948E65A68A2E609F1010919F0CB
:1053A000030F04F108047FF4AEAE2DE004F108030E
:1053B0006469A34208BF0CF1020C3FF467AE23E618
:1053C00019441C464868DB6854F8082F40F0010572
:1053D0004D603046D3609A6000F0B0F924E60CF1DD
:1053E0005B0C4FEA4C013BE68A0938325000A8E7D3
:1053F000BC423FF403AFBC68626822F0030262E77C
:10540000D8F8008098457BD11CF0030FA8F1080361
:105410000CF1FF3CF4D17B6823EA00037B60400081
:1054200098423FF6BFAE00283FF4BCAE0342CC46E4
:105430007FF465AE400003420CF1040CFAD05EE646
:10544000BCF5AA7F1AD84FEAD53C0CF1770C4FEA8D
:105450004C0105E64FF48053EFE60123C8F8043011
:10546000444600222FE791100120D8F8042000FACA
:1054700001F10A43C8F80420194674E740F2545376
:105480009C451BD84FEA954C0CF17C0C4FEA4C0123
:10549000E6E50AF1100AA3E6542B1FD80A0B6E3278
:1054A00050004EE7CBF30B0100297FF4B1AE0AEBBD
:1054B0000901BA6841F001015160F6E6FC214FF0A4
:1054C0007E0CCDE501224FF0000ACBE604F1080185
:1054D000304600F089FADAF80030E6E6B3F5AA7F44
:1054E00003D8CA0B773250002BE740F25452934254
:1054F00003D88A0C7C32500023E7FC207E2220E770
:105500007B688CE754040020032A70B428D940EA51
:1055100001039B0713D005780C78A54224D1013AEA
:10552000002305E010F8015F11F8014FA5421BD1DF
:10553000934203F10103F5D1002070BC70470C4683
:10554000034625681E68AE422146184604F104044D
:1055500003F1040304D1043A032A18462146F0D883
:10556000002AD8D11046E8E7281B70BC704700BF5E
:10557000844641EA000313F003036DD1403A41D35E
:1055800051F8043B40F8043B51F8043B40F8043B1D
:1055900051F8043B40F8043B51F8043B40F8043B0D
:1055A00051F8043B40F8043B51F8043B40F8043BFD
:1055B00051F8043B40F8043B51F8043B40F8043BED
:1055C00051F8043B40F8043B51F8043B40F8043BDD
:1055D00051F8043B40F8043B51F8043B40F8043BCD
:1055E00051F8043B40F8043B51F8043B40F8043BBD
:1055F00051F8043B40F8043B51F8043B40F8043BAD
:10560000403ABDD2303211D351F8043B40F8043B4C
:1056100051F8043B40F8043B51F8043B40F8043B8C
:1056200051F8043B40F8043B103AEDD20C3205D35C
:1056300051F8043B40F8043B043AF9D2043208D054
:10564000D2071CBF11F8013B00F8013B01D30B88C6
:1056500003806046704700BF082A13D38B078DD0A4
:1056600010F003038AD0C3F10403D21ADB071CBF76
:1056700011F8013B00F8013B80D331F8023B20F8E0
:10568000023B7BE7043AD9D3013A11F8013B00F819
:10569000013BF9D20B7803704B7843708B788370A1
:1056A00060467047F0B4840743D0541E002A3ED0B1
:1056B000CDB2034603E0621E002C38D0144603F836
:1056C000015B9A07F7D1032C2AD9CDB245EA05250B
:1056D0000F2C45EA054515D9A4F110073F0903F140
:1056E000100606EB07161A46156055609560D560E2
:1056F0001032B242F8D104F00F040137032C03EB4F
:1057000007130DD91E462246043A032A46F8045BC5
:10571000FAD8221F22F003020432134404F00304D7
:105720002CB1C9B21C4403F8011BA342FBD1F0BC4D
:10573000704714460346C6E7704700BF704700BF76
:1057400038B5074C0023054608462360FDF766FC84
:10575000431C00D038BD2368002BFBD02B6038BD24
:10576000C4130020F0B5274C2668D6F8484185B010
:105770000746002C41D065681F2D1EDD224818B950
:105780004FF0FF3005B0F0BD4FF4C87003910292A6
:105790000193FFF70DFC0399029A019B0446002830
:1057A000EED0D6F848512560002060600546C6F866
:1057B0004841C4F88801C4F88C013FB9AB1C0020F3
:1057C0000135656044F8231005B0F0BD04EB850099
:1057D0004FF0010CC0F88820D4F888610CFA05F26B
:1057E0001643022FC4F88861C0F80831E6D1D4F816
:1057F0008C311A43C4F88C21E0E706F5A674C6F88C
:105800004841B8E714770008B14F0008024B13B1C4
:10581000024800F07DB87047000000001D590008E4
:105820002DE9F04F384B1B6885B003F5A472019346
:1058300002900F460392019BD3F84881B8F1000F04
:105840001CD0DDF80CB04FF00109DA46D8F804306E
:105850005C1E11D408F188059E1C05EB830508EB3E
:10586000860677B1EB6FBB420BD0013C631CA5F100
:105870000405A6F10406F4D1244A7ABB05B0BDE8BC
:10588000F08FD8F8042056F8043C013AA24216BF23
:105890000022C8F8044046F8042C002BE5D0D8F8C4
:1058A0008811D8F804B009FA04F20A4210D0D8F8E6
:1058B0008C110A420ED1029855F8041C9847D8F86A
:1058C00004305B45B7D1DAF800304345CDD0B2E7BC
:1058D0009847F4E755F8040C9847F0E7D8F80430F7
:1058E0006BB9D8F8003063B14046CAF80030FFF712
:1058F00067FBDAF80080B8F1000FA7D1BEE7D8F84F
:105900000030C2469846F6E714770008C14F0008F9
:105910000146002002460346FFF724BF38B5094D73
:10592000094C641BA41018BF05EB840505D0013C8D
:1059300055F8043D9847002CF9D1BDE8384001F0F6
:1059400071BC00BF780800207C080020F8B5234D0A
:105950000F460446FFF7F0FEAB685E6826F00306CC
:10596000F11B01F6EF7121F47F6121F00F01A1F528
:105970008057B7F5805F07DB20460021FFF7E0FE88
:10598000AB683344984204D02046FFF7D7FE00208E
:10599000F8BD20467942FFF7D3FE01300DD0104B01
:1059A000AA681968F61B46F001062046C91B566016
:1059B0001960FFF7C3FE0120F8BD20460021FFF764
:1059C000BFFEAB68C21A0F2ADEDD064D04492D6802
:1059D00042F00102401B5A600860D5E754040020E1
:1059E0004C0B0020600800202DE9F0410D460646D2
:1059F000002955D0FFF7A0FE55F8041CDFF874C14C
:105A000021F00103A5F10804E218DCF8080057684A
:105A1000904227F0030769D011F00101576032D09E
:105A20000021D0194068C00706D43B449068002983
:105A30004ED0D268C260906043F001026260E350D1
:105A4000E1B9B3F5007F2DD35A0A042A6AD8980920
:105A5000383041000CEB810C4649DCF808206245E7
:105A600066D0516821F003018B4202D292689445BE
:105A7000F7D1D368E360A2609C60D4603046BDE893
:105A8000F041FFF75BBE55F8085C641B0CF1080899
:105A9000A06840452B4443D0E568C560A860C0E7D6
:105AA000BDE8F081DB080CEBC3020125DCF8040043
:105AB0009168A1609B1005FA03F31843E260CCF8EB
:105AC000040094603046CC60BDE8F041FFF736BE7C
:105AD000294DA842ADD143F00102CCF81440CCF8D6
